{
	"data": {
		"bytecode": {
			"linkReferences": {},
			"object": "6080604052348015600e575f80fd5b5061072f8061001c5f395ff3fe608060405234801561000f575f80fd5b5060043610610060575f3560e01c806326121ff01461006457806340dcbb081461006e57806371e5ee5f1461009e578063b8dda9c7146100ce578063baf71609146100fe578063df90c8d31461012e575b5f80fd5b61006c61015e565b005b6100886004803603810190610083919061033d565b61019c565b60405161009591906103a0565b60405180910390f35b6100b860048036038101906100b391906103e3565b6101a9565b6040516100c591906103a0565b60405180910390f35b6100e860048036038101906100e391906103e3565b6101c8565b6040516100f5919061044d565b60405180910390f35b610118600480360381019061011391906105ae565b6101f8565b60405161012591906106ac565b60405180910390f35b610148600480360381019061014391906103e3565b61022e565b60405161015591906103a0565b60405180910390f35b61017b5f600160025f600181526020019081526020015f20610248565b5f60025f600181526020019081526020015f209050602a815f018190555050565b5f82829050905092915050565b5f81815481106101b7575f80fd5b905f5260205f20015f915090505481565b6001602052805f5260405f205f915054906101000a900473ffffffffffffffffffffffffffffffffffffffff1681565b60605f82511115610226576103e7825f81518110610219576102186106cc565b5b6020026020010181815250505b819050919050565b6002602052805f5260405f205f91509050805f0154905081565b82600a908060018154018082558091505060019003905f5260205f20015f909190919091505533825f600181526020019081526020015f205f6101000a81548173ffffffffffffffffffffffffffffffffffffffff021916908373ffffffffffffffffffffffffffffffffffffffff1602179055506017815f0181905550505050565b5f604051905090565b5f80fd5b5f80fd5b5f80fd5b5f80fd5b5f80fd5b5f8083601f8401126102fd576102fc6102dc565b5b8235905067ffffffffffffffff81111561031a576103196102e0565b5b602083019150836020820283011115610336576103356102e4565b5b9250929050565b5f8060208385031215610353576103526102d4565b5b5f83013567ffffffffffffffff8111156103705761036f6102d8565b5b61037c858286016102e8565b92509250509250929050565b5f819050919050565b61039a81610388565b82525050565b5f6020820190506103b35f830184610391565b92915050565b6103c281610388565b81146103cc575f80fd5b50565b5f813590506103dd816103b9565b92915050565b5f602082840312156103f8576103f76102d4565b5b5f610405848285016103cf565b91505092915050565b5f73ffffffffffffffffffffffffffffffffffffffff82169050919050565b5f6104378261040e565b9050919050565b6104478161042d565b82525050565b5f6020820190506104605f83018461043e565b92915050565b5f601f19601f8301169050919050565b7f4e487b71000000000000000000000000000000000000000000000000000000005f52604160045260245ffd5b6104ac82610466565b810181811067ffffffffffffffff821117156104cb576104ca610476565b5b80604052505050565b5f6104dd6102cb565b90506104e982826104a3565b919050565b5f67ffffffffffffffff82111561050857610507610476565b5b602082029050602081019050919050565b5f61052b610526846104ee565b6104d4565b9050808382526020820190506020840283018581111561054e5761054d6102e4565b5b835b81811015610577578061056388826103cf565b845260208401935050602081019050610550565b5050509392505050565b5f82601f830112610595576105946102dc565b5b81356105a5848260208601610519565b91505092915050565b5f602082840312156105c3576105c26102d4565b5b5f82013567ffffffffffffffff8111156105e0576105df6102d8565b5b6105ec84828501610581565b91505092915050565b5f81519050919050565b5f82825260208201905092915050565b5f819050602082019050919050565b61062781610388565b82525050565b5f610638838361061e565b60208301905092915050565b5f602082019050919050565b5f61065a826105f5565b61066481856105ff565b935061066f8361060f565b805f5b8381101561069f578151610686888261062d565b975061069183610644565b925050600181019050610672565b5085935050505092915050565b5f6020820190508181035f8301526106c48184610650565b905092915050565b7f4e487b71000000000000000000000000000000000000000000000000000000005f52603260045260245ffdfea2646970667358221220dd5e3cce54c716634554a851538e5b457d70751d48a261899bd479cddda3676664736f6c634300081a0033",
			"opcodes": "PUSH1 0x80 PUSH1 0x40 MSTORE CALLVALUE DUP1 ISZERO PUSH1 0xE JUMPI PUSH0 DUP1 REVERT JUMPDEST POP PUSH2 0x72F DUP1 PUSH2 0x1C PUSH0 CODECOPY PUSH0 RETURN INVALID PUSH1 0x80 PUSH1 0x40 MSTORE CALLVALUE DUP1 ISZERO PUSH2 0xF JUMPI PUSH0 DUP1 REVERT JUMPDEST POP PUSH1 0x4 CALLDATASIZE LT PUSH2 0x60 JUMPI PUSH0 CALLDATALOAD PUSH1 0xE0 SHR DUP1 PUSH4 0x26121FF0 EQ PUSH2 0x64 JUMPI DUP1 PUSH4 0x40DCBB08 EQ PUSH2 0x6E JUMPI DUP1 PUSH4 0x71E5EE5F EQ PUSH2 0x9E JUMPI DUP1 PUSH4 0xB8DDA9C7 EQ PUSH2 0xCE JUMPI DUP1 PUSH4 0xBAF71609 EQ PUSH2 0xFE JUMPI DUP1 PUSH4 0xDF90C8D3 EQ PUSH2 0x12E JUMPI JUMPDEST PUSH0 DUP1 REVERT JUMPDEST PUSH2 0x6C PUSH2 0x15E JUMP JUMPDEST STOP JUMPDEST PUSH2 0x88 PUSH1 0x4 DUP1 CALLDATASIZE SUB DUP2 ADD SWAP1 PUSH2 0x83 SWAP2 SWAP1 PUSH2 0x33D JUMP JUMPDEST PUSH2 0x19C JUMP JUMPDEST PUSH1 0x40 MLOAD PUSH2 0x95 SWAP2 SWAP1 PUSH2 0x3A0 JUMP JUMPDEST PUSH1 0x40 MLOAD DUP1 SWAP2 SUB SWAP1 RETURN JUMPDEST PUSH2 0xB8 PUSH1 0x4 DUP1 CALLDATASIZE SUB DUP2 ADD SWAP1 PUSH2 0xB3 SWAP2 SWAP1 PUSH2 0x3E3 JUMP JUMPDEST PUSH2 0x1A9 JUMP JUMPDEST PUSH1 0x40 MLOAD PUSH2 0xC5 SWAP2 SWAP1 PUSH2 0x3A0 JUMP JUMPDEST PUSH1 0x40 MLOAD DUP1 SWAP2 SUB SWAP1 RETURN JUMPDEST PUSH2 0xE8 PUSH1 0x4 DUP1 CALLDATASIZE SUB DUP2 ADD SWAP1 PUSH2 0xE3 SWAP2 SWAP1 PUSH2 0x3E3 JUMP JUMPDEST PUSH2 0x1C8 JUMP JUMPDEST PUSH1 0x40 MLOAD PUSH2 0xF5 SWAP2 SWAP1 PUSH2 0x44D JUMP JUMPDEST PUSH1 0x40 MLOAD DUP1 SWAP2 SUB SWAP1 RETURN JUMPDEST PUSH2 0x118 PUSH1 0x4 DUP1 CALLDATASIZE SUB DUP2 ADD SWAP1 PUSH2 0x113 SWAP2 SWAP1 PUSH2 0x5AE JUMP JUMPDEST PUSH2 0x1F8 JUMP JUMPDEST PUSH1 0x40 MLOAD PUSH2 0x125 SWAP2 SWAP1 PUSH2 0x6AC JUMP JUMPDEST PUSH1 0x40 MLOAD DUP1 SWAP2 SUB SWAP1 RETURN JUMPDEST PUSH2 0x148 PUSH1 0x4 DUP1 CALLDATASIZE SUB DUP2 ADD SWAP1 PUSH2 0x143 SWAP2 SWAP1 PUSH2 0x3E3 JUMP JUMPDEST PUSH2 0x22E JUMP JUMPDEST PUSH1 0x40 MLOAD PUSH2 0x155 SWAP2 SWAP1 PUSH2 0x3A0 JUMP JUMPDEST PUSH1 0x40 MLOAD DUP1 SWAP2 SUB SWAP1 RETURN JUMPDEST PUSH2 0x17B PUSH0 PUSH1 0x1 PUSH1 0x2 PUSH0 PUSH1 0x1 DUP2 MSTORE PUSH1 0x20 ADD SWAP1 DUP2 MSTORE PUSH1 0x20 ADD PUSH0 KECCAK256 PUSH2 0x248 JUMP JUMPDEST PUSH0 PUSH1 0x2 PUSH0 PUSH1 0x1 DUP2 MSTORE PUSH1 0x20 ADD SWAP1 DUP2 MSTORE PUSH1 0x20 ADD PUSH0 KECCAK256 SWAP1 POP PUSH1 0x2A DUP2 PUSH0 ADD DUP2 SWAP1 SSTORE POP POP JUMP JUMPDEST PUSH0 DUP3 DUP3 SWAP1 POP SWAP1 POP SWAP3 SWAP2 POP POP JUMP JUMPDEST PUSH0 DUP2 DUP2 SLOAD DUP2 LT PUSH2 0x1B7 JUMPI PUSH0 DUP1 REVERT JUMPDEST SWAP1 PUSH0 MSTORE PUSH1 0x20 PUSH0 KECCAK256 ADD PUSH0 SWAP2 POP SWAP1 POP SLOAD DUP2 JUMP JUMPDEST PUSH1 0x1 PUSH1 0x20 MSTORE DUP1 PUSH0 MSTORE PUSH1 0x40 PUSH0 KECCAK256 PUSH0 SWAP2 POP SLOAD SWAP1 PUSH2 0x100 EXP SWAP1 DIV PUSH20 0xFFFFFFFFFFFFFFFFFFFFFFFFFFFFFFFFFFFFFFFF AND DUP2 JUMP JUMPDEST PUSH1 0x60 PUSH0 DUP3 MLOAD GT ISZERO PUSH2 0x226 JUMPI PUSH2 0x3E7 DUP3 PUSH0 DUP2 MLOAD DUP2 LT PUSH2 0x219 JUMPI PUSH2 0x218 PUSH2 0x6CC JUMP JUMPDEST JUMPDEST PUSH1 0x20 MUL PUSH1 0x20 ADD ADD DUP2 DUP2 MSTORE POP POP JUMPDEST DUP2 SWAP1 POP SWAP2 SWAP1 POP JUMP JUMPDEST PUSH1 0x2 PUSH1 0x20 MSTORE DUP1 PUSH0 MSTORE PUSH1 0x40 PUSH0 KECCAK256 PUSH0 SWAP2 POP SWAP1 POP DUP1 PUSH0 ADD SLOAD SWAP1 POP DUP2 JUMP JUMPDEST DUP3 PUSH1 0xA SWAP1 DUP1 PUSH1 0x1 DUP2 SLOAD ADD DUP1 DUP3 SSTORE DUP1 SWAP2 POP POP PUSH1 0x1 SWAP1 SUB SWAP1 PUSH0 MSTORE PUSH1 0x20 PUSH0 KECCAK256 ADD PUSH0 SWAP1 SWAP2 SWAP1 SWAP2 SWAP1 SWAP2 POP SSTORE CALLER DUP3 PUSH0 PUSH1 0x1 DUP2 MSTORE PUSH1 0x20 ADD SWAP1 DUP2 MSTORE PUSH1 0x20 ADD PUSH0 KECCAK256 PUSH0 PUSH2 0x100 EXP DUP2 SLOAD DUP2 PUSH20 0xFFFFFFFFFFFFFFFFFFFFFFFFFFFFFFFFFFFFFFFF MUL NOT AND SWAP1 DUP4 PUSH20 0xFFFFFFFFFFFFFFFFFFFFFFFFFFFFFFFFFFFFFFFF AND MUL OR SWAP1 SSTORE POP PUSH1 0x17 DUP2 PUSH0 ADD DUP2 SWAP1 SSTORE POP POP POP POP JUMP JUMPDEST PUSH0 PUSH1 0x40 MLOAD SWAP1 POP SWAP1 JUMP JUMPDEST PUSH0 DUP1 REVERT JUMPDEST PUSH0 DUP1 REVERT JUMPDEST PUSH0 DUP1 REVERT JUMPDEST PUSH0 DUP1 REVERT JUMPDEST PUSH0 DUP1 REVERT JUMPDEST PUSH0 DUP1 DUP4 PUSH1 0x1F DUP5 ADD SLT PUSH2 0x2FD JUMPI PUSH2 0x2FC PUSH2 0x2DC JUMP JUMPDEST JUMPDEST DUP3 CALLDATALOAD SWAP1 POP PUSH8 0xFFFFFFFFFFFFFFFF DUP2 GT ISZERO PUSH2 0x31A JUMPI PUSH2 0x319 PUSH2 0x2E0 JUMP JUMPDEST JUMPDEST PUSH1 0x20 DUP4 ADD SWAP2 POP DUP4 PUSH1 0x20 DUP3 MUL DUP4 ADD GT ISZERO PUSH2 0x336 JUMPI PUSH2 0x335 PUSH2 0x2E4 JUMP JUMPDEST JUMPDEST SWAP3 POP SWAP3 SWAP1 POP JUMP JUMPDEST PUSH0 DUP1 PUSH1 0x20 DUP4 DUP6 SUB SLT ISZERO PUSH2 0x353 JUMPI PUSH2 0x352 PUSH2 0x2D4 JUMP JUMPDEST JUMPDEST PUSH0 DUP4 ADD CALLDATALOAD PUSH8 0xFFFFFFFFFFFFFFFF DUP2 GT ISZERO PUSH2 0x370 JUMPI PUSH2 0x36F PUSH2 0x2D8 JUMP JUMPDEST JUMPDEST PUSH2 0x37C DUP6 DUP3 DUP7 ADD PUSH2 0x2E8 JUMP JUMPDEST SWAP3 POP SWAP3 POP POP SWAP3 POP SWAP3 SWAP1 POP JUMP JUMPDEST PUSH0 DUP2 SWAP1 POP SWAP2 SWAP1 POP JUMP JUMPDEST PUSH2 0x39A DUP2 PUSH2 0x388 JUMP JUMPDEST DUP3 MSTORE POP POP JUMP JUMPDEST PUSH0 PUSH1 0x20 DUP3 ADD SWAP1 POP PUSH2 0x3B3 PUSH0 DUP4 ADD DUP5 PUSH2 0x391 JUMP JUMPDEST SWAP3 SWAP2 POP POP JUMP JUMPDEST PUSH2 0x3C2 DUP2 PUSH2 0x388 JUMP JUMPDEST DUP2 EQ PUSH2 0x3CC JUMPI PUSH0 DUP1 REVERT JUMPDEST POP JUMP JUMPDEST PUSH0 DUP2 CALLDATALOAD SWAP1 POP PUSH2 0x3DD DUP2 PUSH2 0x3B9 JUMP JUMPDEST SWAP3 SWAP2 POP POP JUMP JUMPDEST PUSH0 PUSH1 0x20 DUP3 DUP5 SUB SLT ISZERO PUSH2 0x3F8 JUMPI PUSH2 0x3F7 PUSH2 0x2D4 JUMP JUMPDEST JUMPDEST PUSH0 PUSH2 0x405 DUP5 DUP3 DUP6 ADD PUSH2 0x3CF JUMP JUMPDEST SWAP2 POP POP SWAP3 SWAP2 POP POP JUMP JUMPDEST PUSH0 PUSH20 0xFFFFFFFFFFFFFFFFFFFFFFFFFFFFFFFFFFFFFFFF DUP3 AND SWAP1 POP SWAP2 SWAP1 POP JUMP JUMPDEST PUSH0 PUSH2 0x437 DUP3 PUSH2 0x40E JUMP JUMPDEST SWAP1 POP SWAP2 SWAP1 POP JUMP JUMPDEST PUSH2 0x447 DUP2 PUSH2 0x42D JUMP JUMPDEST DUP3 MSTORE POP POP JUMP JUMPDEST PUSH0 PUSH1 0x20 DUP3 ADD SWAP1 POP PUSH2 0x460 PUSH0 DUP4 ADD DUP5 PUSH2 0x43E JUMP JUMPDEST SWAP3 SWAP2 POP POP JUMP JUMPDEST PUSH0 PUSH1 0x1F NOT PUSH1 0x1F DUP4 ADD AND SWAP1 POP SWAP2 SWAP1 POP JUMP JUMPDEST PUSH32 0x4E487B7100000000000000000000000000000000000000000000000000000000 PUSH0 MSTORE PUSH1 0x41 PUSH1 0x4 MSTORE PUSH1 0x24 PUSH0 REVERT JUMPDEST PUSH2 0x4AC DUP3 PUSH2 0x466 JUMP JUMPDEST DUP2 ADD DUP2 DUP2 LT PUSH8 0xFFFFFFFFFFFFFFFF DUP3 GT OR ISZERO PUSH2 0x4CB JUMPI PUSH2 0x4CA PUSH2 0x476 JUMP JUMPDEST JUMPDEST DUP1 PUSH1 0x40 MSTORE POP POP POP JUMP JUMPDEST PUSH0 PUSH2 0x4DD PUSH2 0x2CB JUMP JUMPDEST SWAP1 POP PUSH2 0x4E9 DUP3 DUP3 PUSH2 0x4A3 JUMP JUMPDEST SWAP2 SWAP1 POP JUMP JUMPDEST PUSH0 PUSH8 0xFFFFFFFFFFFFFFFF DUP3 GT ISZERO PUSH2 0x508 JUMPI PUSH2 0x507 PUSH2 0x476 JUMP JUMPDEST JUMPDEST PUSH1 0x20 DUP3 MUL SWAP1 POP PUSH1 0x20 DUP2 ADD SWAP1 POP SWAP2 SWAP1 POP JUMP JUMPDEST PUSH0 PUSH2 0x52B PUSH2 0x526 DUP5 PUSH2 0x4EE JUMP JUMPDEST PUSH2 0x4D4 JUMP JUMPDEST SWAP1 POP DUP1 DUP4 DUP3 MSTORE PUSH1 0x20 DUP3 ADD SWAP1 POP PUSH1 0x20 DUP5 MUL DUP4 ADD DUP6 DUP2 GT ISZERO PUSH2 0x54E JUMPI PUSH2 0x54D PUSH2 0x2E4 JUMP JUMPDEST JUMPDEST DUP4 JUMPDEST DUP2 DUP2 LT ISZERO PUSH2 0x577 JUMPI DUP1 PUSH2 0x563 DUP9 DUP3 PUSH2 0x3CF JUMP JUMPDEST DUP5 MSTORE PUSH1 0x20 DUP5 ADD SWAP4 POP POP PUSH1 0x20 DUP2 ADD SWAP1 POP PUSH2 0x550 JUMP JUMPDEST POP POP POP SWAP4 SWAP3 POP POP POP JUMP JUMPDEST PUSH0 DUP3 PUSH1 0x1F DUP4 ADD SLT PUSH2 0x595 JUMPI PUSH2 0x594 PUSH2 0x2DC JUMP JUMPDEST JUMPDEST DUP2 CALLDATALOAD PUSH2 0x5A5 DUP5 DUP3 PUSH1 0x20 DUP7 ADD PUSH2 0x519 JUMP JUMPDEST SWAP2 POP POP SWAP3 SWAP2 POP POP JUMP JUMPDEST PUSH0 PUSH1 0x20 DUP3 DUP5 SUB SLT ISZERO PUSH2 0x5C3 JUMPI PUSH2 0x5C2 PUSH2 0x2D4 JUMP JUMPDEST JUMPDEST PUSH0 DUP3 ADD CALLDATALOAD PUSH8 0xFFFFFFFFFFFFFFFF DUP2 GT ISZERO PUSH2 0x5E0 JUMPI PUSH2 0x5DF PUSH2 0x2D8 JUMP JUMPDEST JUMPDEST PUSH2 0x5EC DUP5 DUP3 DUP6 ADD PUSH2 0x581 JUMP JUMPDEST SWAP2 POP POP SWAP3 SWAP2 POP POP JUMP JUMPDEST PUSH0 DUP2 MLOAD SWAP1 POP SWAP2 SWAP1 POP JUMP JUMPDEST PUSH0 DUP3 DUP3 MSTORE PUSH1 0x20 DUP3 ADD SWAP1 POP SWAP3 SWAP2 POP POP JUMP JUMPDEST PUSH0 DUP2 SWAP1 POP PUSH1 0x20 DUP3 ADD SWAP1 POP SWAP2 SWAP1 POP JUMP JUMPDEST PUSH2 0x627 DUP2 PUSH2 0x388 JUMP JUMPDEST DUP3 MSTORE POP POP JUMP JUMPDEST PUSH0 PUSH2 0x638 DUP4 DUP4 PUSH2 0x61E JUMP JUMPDEST PUSH1 0x20 DUP4 ADD SWAP1 POP SWAP3 SWAP2 POP POP JUMP JUMPDEST PUSH0 PUSH1 0x20 DUP3 ADD SWAP1 POP SWAP2 SWAP1 POP JUMP JUMPDEST PUSH0 PUSH2 0x65A DUP3 PUSH2 0x5F5 JUMP JUMPDEST PUSH2 0x664 DUP2 DUP6 PUSH2 0x5FF JUMP JUMPDEST SWAP4 POP PUSH2 0x66F DUP4 PUSH2 0x60F JUMP JUMPDEST DUP1 PUSH0 JUMPDEST DUP4 DUP2 LT ISZERO PUSH2 0x69F JUMPI DUP2 MLOAD PUSH2 0x686 DUP9 DUP3 PUSH2 0x62D JUMP JUMPDEST SWAP8 POP PUSH2 0x691 DUP4 PUSH2 0x644 JUMP JUMPDEST SWAP3 POP POP PUSH1 0x1 DUP2 ADD SWAP1 POP PUSH2 0x672 JUMP JUMPDEST POP DUP6 SWAP4 POP POP POP POP SWAP3 SWAP2 POP POP JUMP JUMPDEST PUSH0 PUSH1 0x20 DUP3 ADD SWAP1 POP DUP2 DUP2 SUB PUSH0 DUP4 ADD MSTORE PUSH2 0x6C4 DUP2 DUP5 PUSH2 0x650 JUMP JUMPDEST SWAP1 POP SWAP3 SWAP2 POP POP JUMP JUMPDEST PUSH32 0x4E487B7100000000000000000000000000000000000000000000000000000000 PUSH0 MSTORE PUSH1 0x32 PUSH1 0x4 MSTORE PUSH1 0x24 PUSH0 REVERT INVALID LOG2 PUSH5 0x6970667358 0x22 SLT KECCAK256 0xDD MCOPY EXTCODECOPY 0xCE SLOAD 0xC7 AND PUSH4 0x4554A851 MSTORE8 DUP15 JUMPDEST GASLIMIT PUSH30 0x70751D48A261899BD479CDDDA3676664736F6C634300081A003300000000 "
		},
		"gasEstimates": {
			"creation": {
				"codeDepositCost": "367800",
				"executionCost": "403",
				"totalCost": "368203"
			},
			"external": {
				"arr(uint256)": "infinite",
				"f()": "98222",
				"g(uint256[])": "infinite",
				"h(uint256[])": "670",
				"map(uint256)": "2871",
				"myStructs(uint256)": "infinite"
			},
			"internal": {
				"_f(uint256[] storage pointer,mapping(uint256 => address),struct DataLocations.MyStruct storage pointer)": "92901"
			}
		},
		"methodIdentifiers": {
			"arr(uint256)": "71e5ee5f",
			"f()": "26121ff0",
			"g(uint256[])": "baf71609",
			"h(uint256[])": "40dcbb08",
			"map(uint256)": "b8dda9c7",
			"myStructs(uint256)": "df90c8d3"
		}
	},
	"abi": [
		{
			"inputs": [
				{
					"internalType": "uint256",
					"name": "",
					"type": "uint256"
				}
			],
			"name": "arr",
			"outputs": [
				{
					"internalType": "uint256",
					"name": "",
					"type": "uint256"
				}
			],
			"stateMutability": "view",
			"type": "function"
		},
		{
			"inputs": [],
			"name": "f",
			"outputs": [],
			"stateMutability": "nonpayable",
			"type": "function"
		},
		{
			"inputs": [
				{
					"internalType": "uint256[]",
					"name": "_arr",
					"type": "uint256[]"
				}
			],
			"name": "g",
			"outputs": [
				{
					"internalType": "uint256[]",
					"name": "",
					"type": "uint256[]"
				}
			],
			"stateMutability": "pure",
			"type": "function"
		},
		{
			"inputs": [
				{
					"internalType": "uint256[]",
					"name": "_arr",
					"type": "uint256[]"
				}
			],
			"name": "h",
			"outputs": [
				{
					"internalType": "uint256",
					"name": "",
					"type": "uint256"
				}
			],
			"stateMutability": "pure",
			"type": "function"
		},
		{
			"inputs": [
				{
					"internalType": "uint256",
					"name": "",
					"type": "uint256"
				}
			],
			"name": "map",
			"outputs": [
				{
					"internalType": "address",
					"name": "",
					"type": "address"
				}
			],
			"stateMutability": "view",
			"type": "function"
		},
		{
			"inputs": [
				{
					"internalType": "uint256",
					"name": "",
					"type": "uint256"
				}
			],
			"name": "myStructs",
			"outputs": [
				{
					"internalType": "uint256",
					"name": "foo",
					"type": "uint256"
				}
			],
			"stateMutability": "view",
			"type": "function"
		}
	]
}