{
	"data": {
		"bytecode": {
			"linkReferences": {},
			"object": "6080604052348015600e575f80fd5b506103288061001c5f395ff3fe608060405234801561000f575f80fd5b5060043610610055575f3560e01c8063262a9dff14610059578063967e6e6514610077578063a1aab33f14610095578063a61a6ea4146100b3578063a9b4b780146100cf575b5f80fd5b6100616100ed565b60405161006e91906101f3565b60405180910390f35b61007f610104565b60405161008c919061021b565b60405180910390f35b61009d61011f565b6040516100aa9190610243565b60405180910390f35b6100cd60048036038101906100c891906102b4565b610138565b005b6100d761018b565b6040516100e4919061021b565b60405180910390f35b5f8054906101000a900467ffffffffffffffff1681565b5f805f9054906101000a900467ffffffffffffffff16905090565b5f60089054906101000a900467ffffffffffffffff1681565b815f806101000a81548167ffffffffffffffff021916908367ffffffffffffffff160217905550805f60086101000a81548167ffffffffffffffff021916908367ffffffffffffffff1602179055505050565b5f8060089054906101000a900467ffffffffffffffff16905090565b5f67ffffffffffffffff82169050919050565b5f819050919050565b5f6101dd6101d86101d3846101a7565b6101ba565b6101a7565b9050919050565b6101ed816101c3565b82525050565b5f6020820190506102065f8301846101e4565b92915050565b610215816101a7565b82525050565b5f60208201905061022e5f83018461020c565b92915050565b61023d816101c3565b82525050565b5f6020820190506102565f830184610234565b92915050565b5f80fd5b610269816101a7565b8114610273575f80fd5b50565b5f8135905061028481610260565b92915050565b610293816101a7565b811461029d575f80fd5b50565b5f813590506102ae8161028a565b92915050565b5f80604083850312156102ca576102c961025c565b5b5f6102d785828601610276565b92505060206102e8858286016102a0565b915050925092905056fea26469706673582212205fdece34c9d355c9242d7f9978c9f1c522ef0faf1d7d2642da1698cbe7711a9664736f6c634300081a0033",
			"opcodes": "PUSH1 0x80 PUSH1 0x40 MSTORE CALLVALUE DUP1 ISZERO PUSH1 0xE JUMPI PUSH0 DUP1 REVERT JUMPDEST POP PUSH2 0x328 DUP1 PUSH2 0x1C PUSH0 CODECOPY PUSH0 RETURN INVALID PUSH1 0x80 PUSH1 0x40 MSTORE CALLVALUE DUP1 ISZERO PUSH2 0xF JUMPI PUSH0 DUP1 REVERT JUMPDEST POP PUSH1 0x4 CALLDATASIZE LT PUSH2 0x55 JUMPI PUSH0 CALLDATALOAD PUSH1 0xE0 SHR DUP1 PUSH4 0x262A9DFF EQ PUSH2 0x59 JUMPI DUP1 PUSH4 0x967E6E65 EQ PUSH2 0x77 JUMPI DUP1 PUSH4 0xA1AAB33F EQ PUSH2 0x95 JUMPI DUP1 PUSH4 0xA61A6EA4 EQ PUSH2 0xB3 JUMPI DUP1 PUSH4 0xA9B4B780 EQ PUSH2 0xCF JUMPI JUMPDEST PUSH0 DUP1 REVERT JUMPDEST PUSH2 0x61 PUSH2 0xED JUMP JUMPDEST PUSH1 0x40 MLOAD PUSH2 0x6E SWAP2 SWAP1 PUSH2 0x1F3 JUMP JUMPDEST PUSH1 0x40 MLOAD DUP1 SWAP2 SUB SWAP1 RETURN JUMPDEST PUSH2 0x7F PUSH2 0x104 JUMP JUMPDEST PUSH1 0x40 MLOAD PUSH2 0x8C SWAP2 SWAP1 PUSH2 0x21B JUMP JUMPDEST PUSH1 0x40 MLOAD DUP1 SWAP2 SUB SWAP1 RETURN JUMPDEST PUSH2 0x9D PUSH2 0x11F JUMP JUMPDEST PUSH1 0x40 MLOAD PUSH2 0xAA SWAP2 SWAP1 PUSH2 0x243 JUMP JUMPDEST PUSH1 0x40 MLOAD DUP1 SWAP2 SUB SWAP1 RETURN JUMPDEST PUSH2 0xCD PUSH1 0x4 DUP1 CALLDATASIZE SUB DUP2 ADD SWAP1 PUSH2 0xC8 SWAP2 SWAP1 PUSH2 0x2B4 JUMP JUMPDEST PUSH2 0x138 JUMP JUMPDEST STOP JUMPDEST PUSH2 0xD7 PUSH2 0x18B JUMP JUMPDEST PUSH1 0x40 MLOAD PUSH2 0xE4 SWAP2 SWAP1 PUSH2 0x21B JUMP JUMPDEST PUSH1 0x40 MLOAD DUP1 SWAP2 SUB SWAP1 RETURN JUMPDEST PUSH0 DUP1 SLOAD SWAP1 PUSH2 0x100 EXP SWAP1 DIV PUSH8 0xFFFFFFFFFFFFFFFF AND DUP2 JUMP JUMPDEST PUSH0 DUP1 PUSH0 SWAP1 SLOAD SWAP1 PUSH2 0x100 EXP SWAP1 DIV PUSH8 0xFFFFFFFFFFFFFFFF AND SWAP1 POP SWAP1 JUMP JUMPDEST PUSH0 PUSH1 0x8 SWAP1 SLOAD SWAP1 PUSH2 0x100 EXP SWAP1 DIV PUSH8 0xFFFFFFFFFFFFFFFF AND DUP2 JUMP JUMPDEST DUP2 PUSH0 DUP1 PUSH2 0x100 EXP DUP2 SLOAD DUP2 PUSH8 0xFFFFFFFFFFFFFFFF MUL NOT AND SWAP1 DUP4 PUSH8 0xFFFFFFFFFFFFFFFF AND MUL OR SWAP1 SSTORE POP DUP1 PUSH0 PUSH1 0x8 PUSH2 0x100 EXP DUP2 SLOAD DUP2 PUSH8 0xFFFFFFFFFFFFFFFF MUL NOT AND SWAP1 DUP4 PUSH8 0xFFFFFFFFFFFFFFFF AND MUL OR SWAP1 SSTORE POP POP POP JUMP JUMPDEST PUSH0 DUP1 PUSH1 0x8 SWAP1 SLOAD SWAP1 PUSH2 0x100 EXP SWAP1 DIV PUSH8 0xFFFFFFFFFFFFFFFF AND SWAP1 POP SWAP1 JUMP JUMPDEST PUSH0 PUSH8 0xFFFFFFFFFFFFFFFF DUP3 AND SWAP1 POP SWAP2 SWAP1 POP JUMP JUMPDEST PUSH0 DUP2 SWAP1 POP SWAP2 SWAP1 POP JUMP JUMPDEST PUSH0 PUSH2 0x1DD PUSH2 0x1D8 PUSH2 0x1D3 DUP5 PUSH2 0x1A7 JUMP JUMPDEST PUSH2 0x1BA JUMP JUMPDEST PUSH2 0x1A7 JUMP JUMPDEST SWAP1 POP SWAP2 SWAP1 POP JUMP JUMPDEST PUSH2 0x1ED DUP2 PUSH2 0x1C3 JUMP JUMPDEST DUP3 MSTORE POP POP JUMP JUMPDEST PUSH0 PUSH1 0x20 DUP3 ADD SWAP1 POP PUSH2 0x206 PUSH0 DUP4 ADD DUP5 PUSH2 0x1E4 JUMP JUMPDEST SWAP3 SWAP2 POP POP JUMP JUMPDEST PUSH2 0x215 DUP2 PUSH2 0x1A7 JUMP JUMPDEST DUP3 MSTORE POP POP JUMP JUMPDEST PUSH0 PUSH1 0x20 DUP3 ADD SWAP1 POP PUSH2 0x22E PUSH0 DUP4 ADD DUP5 PUSH2 0x20C JUMP JUMPDEST SWAP3 SWAP2 POP POP JUMP JUMPDEST PUSH2 0x23D DUP2 PUSH2 0x1C3 JUMP JUMPDEST DUP3 MSTORE POP POP JUMP JUMPDEST PUSH0 PUSH1 0x20 DUP3 ADD SWAP1 POP PUSH2 0x256 PUSH0 DUP4 ADD DUP5 PUSH2 0x234 JUMP JUMPDEST SWAP3 SWAP2 POP POP JUMP JUMPDEST PUSH0 DUP1 REVERT JUMPDEST PUSH2 0x269 DUP2 PUSH2 0x1A7 JUMP JUMPDEST DUP2 EQ PUSH2 0x273 JUMPI PUSH0 DUP1 REVERT JUMPDEST POP JUMP JUMPDEST PUSH0 DUP2 CALLDATALOAD SWAP1 POP PUSH2 0x284 DUP2 PUSH2 0x260 JUMP JUMPDEST SWAP3 SWAP2 POP POP JUMP JUMPDEST PUSH2 0x293 DUP2 PUSH2 0x1A7 JUMP JUMPDEST DUP2 EQ PUSH2 0x29D JUMPI PUSH0 DUP1 REVERT JUMPDEST POP JUMP JUMPDEST PUSH0 DUP2 CALLDATALOAD SWAP1 POP PUSH2 0x2AE DUP2 PUSH2 0x28A JUMP JUMPDEST SWAP3 SWAP2 POP POP JUMP JUMPDEST PUSH0 DUP1 PUSH1 0x40 DUP4 DUP6 SUB SLT ISZERO PUSH2 0x2CA JUMPI PUSH2 0x2C9 PUSH2 0x25C JUMP JUMPDEST JUMPDEST PUSH0 PUSH2 0x2D7 DUP6 DUP3 DUP7 ADD PUSH2 0x276 JUMP JUMPDEST SWAP3 POP POP PUSH1 0x20 PUSH2 0x2E8 DUP6 DUP3 DUP7 ADD PUSH2 0x2A0 JUMP JUMPDEST SWAP2 POP POP SWAP3 POP SWAP3 SWAP1 POP JUMP INVALID LOG2 PUSH5 0x6970667358 0x22 SLT KECCAK256 PUSH0 0xDE 0xCE CALLVALUE 0xC9 0xD3 SSTORE 0xC9 0x24 0x2D PUSH32 0x9978C9F1C522EF0FAF1D7D2642DA1698CBE7711A9664736F6C634300081A0033 "
		},
		"gasEstimates": {
			"creation": {
				"codeDepositCost": "161600",
				"executionCost": "206",
				"totalCost": "161806"
			},
			"external": {
				"age()": "infinite",
				"getAge()": "2473",
				"getWeight()": "2590",
				"setDetails(uint64,uint64)": "infinite",
				"weight()": "infinite"
			}
		},
		"methodIdentifiers": {
			"age()": "262a9dff",
			"getAge()": "967e6e65",
			"getWeight()": "a9b4b780",
			"setDetails(uint64,uint64)": "a61a6ea4",
			"weight()": "a1aab33f"
		}
	},
	"abi": [
		{
			"inputs": [],
			"name": "age",
			"outputs": [
				{
					"internalType": "Age",
					"name": "",
					"type": "uint64"
				}
			],
			"stateMutability": "view",
			"type": "function"
		},
		{
			"inputs": [],
			"name": "getAge",
			"outputs": [
				{
					"internalType": "uint64",
					"name": "",
					"type": "uint64"
				}
			],
			"stateMutability": "view",
			"type": "function"
		},
		{
			"inputs": [],
			"name": "getWeight",
			"outputs": [
				{
					"internalType": "uint64",
					"name": "",
					"type": "uint64"
				}
			],
			"stateMutability": "view",
			"type": "function"
		},
		{
			"inputs": [
				{
					"internalType": "Age",
					"name": "_age",
					"type": "uint64"
				},
				{
					"internalType": "Weight",
					"name": "_weight",
					"type": "uint64"
				}
			],
			"name": "setDetails",
			"outputs": [],
			"stateMutability": "nonpayable",
			"type": "function"
		},
		{
			"inputs": [],
			"name": "weight",
			"outputs": [
				{
					"internalType": "Weight",
					"name": "",
					"type": "uint64"
				}
			],
			"stateMutability": "view",
			"type": "function"
		}
	]
}