{
	"Contract/Struct.sol": {
		"Struct": {
			"abi": [
				{
					"inputs": [
						{
							"internalType": "string",
							"name": "_text",
							"type": "string"
						}
					],
					"name": "create",
					"outputs": [],
					"stateMutability": "nonpayable",
					"type": "function"
				},
				{
					"inputs": [
						{
							"internalType": "uint256",
							"name": "",
							"type": "uint256"
						}
					],
					"name": "todos",
					"outputs": [
						{
							"internalType": "string",
							"name": "text",
							"type": "string"
						},
						{
							"internalType": "bool",
							"name": "completed",
							"type": "bool"
						}
					],
					"stateMutability": "view",
					"type": "function"
				},
				{
					"inputs": [
						{
							"internalType": "uint256",
							"name": "_index",
							"type": "uint256"
						}
					],
					"name": "toggleCompleted",
					"outputs": [],
					"stateMutability": "nonpayable",
					"type": "function"
				},
				{
					"inputs": [
						{
							"internalType": "uint256",
							"name": "_index",
							"type": "uint256"
						},
						{
							"internalType": "string",
							"name": "_text",
							"type": "string"
						}
					],
					"name": "updateText",
					"outputs": [],
					"stateMutability": "nonpayable",
					"type": "function"
				}
			],
			"devdoc": {
				"kind": "dev",
				"methods": {},
				"version": 1
			},
			"evm": {
				"assembly": "    /* \"Contract/Struct.sol\":58:1116  contract Struct {... */\n  mstore(0x40, 0x80)\n  callvalue\n  dup1\n  iszero\n  tag_1\n  jumpi\n  0x00\n  dup1\n  revert\ntag_1:\n  pop\n  dataSize(sub_0)\n  dup1\n  dataOffset(sub_0)\n  0x00\n  codecopy\n  0x00\n  return\nstop\n\nsub_0: assembly {\n        /* \"Contract/Struct.sol\":58:1116  contract Struct {... */\n      mstore(0x40, 0x80)\n      callvalue\n      dup1\n      iszero\n      tag_1\n      jumpi\n      0x00\n      dup1\n      revert\n    tag_1:\n      pop\n      jumpi(tag_2, lt(calldatasize, 0x04))\n      shr(0xe0, calldataload(0x00))\n      dup1\n      0x455f5024\n      eq\n      tag_3\n      jumpi\n      dup1\n      0xb6a46b3b\n      eq\n      tag_4\n      jumpi\n      dup1\n      0xbc8bc2b4\n      eq\n      tag_5\n      jumpi\n      dup1\n      0xcd111614\n      eq\n      tag_6\n      jumpi\n    tag_2:\n      0x00\n      dup1\n      revert\n        /* \"Contract/Struct.sol\":974:1114  function toggleCompleted(uint256 _index) public {... */\n    tag_3:\n      tag_7\n      0x04\n      dup1\n      calldatasize\n      sub\n      dup2\n      add\n      swap1\n      tag_8\n      swap2\n      swap1\n      tag_9\n      jump\t// in\n    tag_8:\n      tag_10\n      jump\t// in\n    tag_7:\n      stop\n        /* \"Contract/Struct.sol\":282:762  function create(string calldata _text) public {... */\n    tag_4:\n      tag_11\n      0x04\n      dup1\n      calldatasize\n      sub\n      dup2\n      add\n      swap1\n      tag_12\n      swap2\n      swap1\n      tag_13\n      jump\t// in\n    tag_12:\n      tag_14\n      jump\t// in\n    tag_11:\n      stop\n        /* \"Contract/Struct.sol\":186:205  Todo[] public todos */\n    tag_5:\n      tag_15\n      0x04\n      dup1\n      calldatasize\n      sub\n      dup2\n      add\n      swap1\n      tag_16\n      swap2\n      swap1\n      tag_9\n      jump\t// in\n    tag_16:\n      tag_17\n      jump\t// in\n    tag_15:\n      mload(0x40)\n      tag_18\n      swap3\n      swap2\n      swap1\n      tag_19\n      jump\t// in\n    tag_18:\n      mload(0x40)\n      dup1\n      swap2\n      sub\n      swap1\n      return\n        /* \"Contract/Struct.sol\":804:944  function updateText(uint256 _index, string memory _text) public{... */\n    tag_6:\n      tag_20\n      0x04\n      dup1\n      calldatasize\n      sub\n      dup2\n      add\n      swap1\n      tag_21\n      swap2\n      swap1\n      tag_22\n      jump\t// in\n    tag_21:\n      tag_23\n      jump\t// in\n    tag_20:\n      stop\n        /* \"Contract/Struct.sol\":974:1114  function toggleCompleted(uint256 _index) public {... */\n    tag_10:\n        /* \"Contract/Struct.sol\":1032:1049  Todo storage todo */\n      0x00\n        /* \"Contract/Struct.sol\":1052:1057  todos */\n      dup1\n        /* \"Contract/Struct.sol\":1058:1064  _index */\n      dup3\n        /* \"Contract/Struct.sol\":1052:1065  todos[_index] */\n      dup2\n      sload\n      dup2\n      lt\n      tag_25\n      jumpi\n      tag_26\n      tag_27\n      jump\t// in\n    tag_26:\n    tag_25:\n      swap1\n      0x00\n      mstore\n      keccak256(0x00, 0x20)\n      swap1\n      0x02\n      mul\n      add\n        /* \"Contract/Struct.sol\":1032:1065  Todo storage todo = todos[_index] */\n      swap1\n      pop\n        /* \"Contract/Struct.sol\":1093:1097  todo */\n      dup1\n        /* \"Contract/Struct.sol\":1093:1107  todo.completed */\n      0x01\n      add\n      0x00\n      swap1\n      sload\n      swap1\n      0x0100\n      exp\n      swap1\n      div\n      0xff\n      and\n        /* \"Contract/Struct.sol\":1092:1107  !todo.completed */\n      iszero\n        /* \"Contract/Struct.sol\":1075:1079  todo */\n      dup2\n        /* \"Contract/Struct.sol\":1075:1089  todo.completed */\n      0x01\n      add\n      0x00\n        /* \"Contract/Struct.sol\":1075:1107  todo.completed = !todo.completed */\n      0x0100\n      exp\n      dup2\n      sload\n      dup2\n      0xff\n      mul\n      not\n      and\n      swap1\n      dup4\n      iszero\n      iszero\n      mul\n      or\n      swap1\n      sstore\n      pop\n        /* \"Contract/Struct.sol\":1022:1114  {... */\n      pop\n        /* \"Contract/Struct.sol\":974:1114  function toggleCompleted(uint256 _index) public {... */\n      pop\n      jump\t// out\n        /* \"Contract/Struct.sol\":282:762  function create(string calldata _text) public {... */\n    tag_14:\n        /* \"Contract/Struct.sol\":420:425  todos */\n      0x00\n        /* \"Contract/Struct.sol\":431:449  Todo(_text, false) */\n      mload(0x40)\n      dup1\n      0x40\n      add\n      0x40\n      mstore\n      dup1\n        /* \"Contract/Struct.sol\":436:441  _text */\n      dup5\n      dup5\n        /* \"Contract/Struct.sol\":431:449  Todo(_text, false) */\n      dup1\n      dup1\n      0x1f\n      add\n      0x20\n      dup1\n      swap2\n      div\n      mul\n      0x20\n      add\n      mload(0x40)\n      swap1\n      dup2\n      add\n      0x40\n      mstore\n      dup1\n      swap4\n      swap3\n      swap2\n      swap1\n      dup2\n      dup2\n      mstore\n      0x20\n      add\n      dup4\n      dup4\n      dup1\n      dup3\n      dup5\n      calldatacopy\n      0x00\n      dup2\n      dup5\n      add\n      mstore\n      not(0x1f)\n      0x1f\n      dup3\n      add\n      and\n      swap1\n      pop\n      dup1\n      dup4\n      add\n      swap3\n      pop\n      pop\n      pop\n      pop\n      pop\n      pop\n      pop\n      dup2\n      mstore\n      0x20\n      add\n        /* \"Contract/Struct.sol\":443:448  false */\n      0x00\n        /* \"Contract/Struct.sol\":431:449  Todo(_text, false) */\n      iszero\n      iszero\n      dup2\n      mstore\n      pop\n        /* \"Contract/Struct.sol\":420:450  todos.push(Todo(_text, false)) */\n      swap1\n      dup1\n      0x01\n      dup2\n      sload\n      add\n      dup1\n      dup3\n      sstore\n      dup1\n      swap2\n      pop\n      pop\n      0x01\n      swap1\n      sub\n      swap1\n      0x00\n      mstore\n      keccak256(0x00, 0x20)\n      swap1\n      0x02\n      mul\n      add\n      0x00\n      swap1\n      swap2\n      swap1\n      swap2\n      swap1\n      swap2\n      pop\n      0x00\n      dup3\n      add\n      mload\n      dup2\n      0x00\n      add\n      swap1\n      dup2\n      tag_31\n      swap2\n      swap1\n      tag_32\n      jump\t// in\n    tag_31:\n      pop\n      0x20\n      dup3\n      add\n      mload\n      dup2\n      0x01\n      add\n      exp(0x0100, 0x00)\n      dup2\n      sload\n      dup2\n      0xff\n      mul\n      not\n      and\n      swap1\n      dup4\n      iszero\n      iszero\n      mul\n      or\n      swap1\n      sstore\n      pop\n      pop\n      pop\n        /* \"Contract/Struct.sol\":490:495  todos */\n      0x00\n        /* \"Contract/Struct.sol\":501:538  Todo({ completed: false,text: _text}) */\n      mload(0x40)\n      dup1\n      0x40\n      add\n      0x40\n      mstore\n      dup1\n        /* \"Contract/Struct.sol\":531:536  _text */\n      dup5\n      dup5\n        /* \"Contract/Struct.sol\":501:538  Todo({ completed: false,text: _text}) */\n      dup1\n      dup1\n      0x1f\n      add\n      0x20\n      dup1\n      swap2\n      div\n      mul\n      0x20\n      add\n      mload(0x40)\n      swap1\n      dup2\n      add\n      0x40\n      mstore\n      dup1\n      swap4\n      swap3\n      swap2\n      swap1\n      dup2\n      dup2\n      mstore\n      0x20\n      add\n      dup4\n      dup4\n      dup1\n      dup3\n      dup5\n      calldatacopy\n      0x00\n      dup2\n      dup5\n      add\n      mstore\n      not(0x1f)\n      0x1f\n      dup3\n      add\n      and\n      swap1\n      pop\n      dup1\n      dup4\n      add\n      swap3\n      pop\n      pop\n      pop\n      pop\n      pop\n      pop\n      pop\n      dup2\n      mstore\n      0x20\n      add\n        /* \"Contract/Struct.sol\":519:524  false */\n      0x00\n        /* \"Contract/Struct.sol\":501:538  Todo({ completed: false,text: _text}) */\n      iszero\n      iszero\n      dup2\n      mstore\n      pop\n        /* \"Contract/Struct.sol\":490:539  todos.push(Todo({ completed: false,text: _text})) */\n      swap1\n      dup1\n      0x01\n      dup2\n      sload\n      add\n      dup1\n      dup3\n      sstore\n      dup1\n      swap2\n      pop\n      pop\n      0x01\n      swap1\n      sub\n      swap1\n      0x00\n      mstore\n      keccak256(0x00, 0x20)\n      swap1\n      0x02\n      mul\n      add\n      0x00\n      swap1\n      swap2\n      swap1\n      swap2\n      swap1\n      swap2\n      pop\n      0x00\n      dup3\n      add\n      mload\n      dup2\n      0x00\n      add\n      swap1\n      dup2\n      tag_34\n      swap2\n      swap1\n      tag_32\n      jump\t// in\n    tag_34:\n      pop\n      0x20\n      dup3\n      add\n      mload\n      dup2\n      0x01\n      add\n      exp(0x0100, 0x00)\n      dup2\n      sload\n      dup2\n      0xff\n      mul\n      not\n      and\n      swap1\n      dup4\n      iszero\n      iszero\n      mul\n      or\n      swap1\n      sstore\n      pop\n      pop\n      pop\n        /* \"Contract/Struct.sol\":607:623  Todo memory todo */\n      tag_35\n      tag_36\n      jump\t// in\n    tag_35:\n        /* \"Contract/Struct.sol\":645:650  _text */\n      dup3\n      dup3\n        /* \"Contract/Struct.sol\":633:650  todo.text = _text */\n      dup1\n      dup1\n      0x1f\n      add\n      0x20\n      dup1\n      swap2\n      div\n      mul\n      0x20\n      add\n      mload(0x40)\n      swap1\n      dup2\n      add\n      0x40\n      mstore\n      dup1\n      swap4\n      swap3\n      swap2\n      swap1\n      dup2\n      dup2\n      mstore\n      0x20\n      add\n      dup4\n      dup4\n      dup1\n      dup3\n      dup5\n      calldatacopy\n      0x00\n      dup2\n      dup5\n      add\n      mstore\n      not(0x1f)\n      0x1f\n      dup3\n      add\n      and\n      swap1\n      pop\n      dup1\n      dup4\n      add\n      swap3\n      pop\n      pop\n      pop\n      pop\n      pop\n      pop\n      pop\n        /* \"Contract/Struct.sol\":633:637  todo */\n      dup2\n        /* \"Contract/Struct.sol\":633:642  todo.text */\n      0x00\n      add\n        /* \"Contract/Struct.sol\":633:650  todo.text = _text */\n      dup2\n      swap1\n      mstore\n      pop\n        /* \"Contract/Struct.sol\":677:681  true */\n      0x01\n        /* \"Contract/Struct.sol\":660:664  todo */\n      dup2\n        /* \"Contract/Struct.sol\":660:674  todo.completed */\n      0x20\n      add\n        /* \"Contract/Struct.sol\":660:681  todo.completed = true */\n      swap1\n      iszero\n      iszero\n      swap1\n      dup2\n      iszero\n      iszero\n      dup2\n      mstore\n      pop\n      pop\n        /* \"Contract/Struct.sol\":739:744  todos */\n      0x00\n        /* \"Contract/Struct.sol\":750:754  todo */\n      dup2\n        /* \"Contract/Struct.sol\":739:755  todos.push(todo) */\n      swap1\n      dup1\n      0x01\n      dup2\n      sload\n      add\n      dup1\n      dup3\n      sstore\n      dup1\n      swap2\n      pop\n      pop\n      0x01\n      swap1\n      sub\n      swap1\n      0x00\n      mstore\n      keccak256(0x00, 0x20)\n      swap1\n      0x02\n      mul\n      add\n      0x00\n      swap1\n      swap2\n      swap1\n      swap2\n      swap1\n      swap2\n      pop\n      0x00\n      dup3\n      add\n      mload\n      dup2\n      0x00\n      add\n      swap1\n      dup2\n      tag_38\n      swap2\n      swap1\n      tag_32\n      jump\t// in\n    tag_38:\n      pop\n      0x20\n      dup3\n      add\n      mload\n      dup2\n      0x01\n      add\n      exp(0x0100, 0x00)\n      dup2\n      sload\n      dup2\n      0xff\n      mul\n      not\n      and\n      swap1\n      dup4\n      iszero\n      iszero\n      mul\n      or\n      swap1\n      sstore\n      pop\n      pop\n      pop\n        /* \"Contract/Struct.sol\":328:762  {... */\n      pop\n        /* \"Contract/Struct.sol\":282:762  function create(string calldata _text) public {... */\n      pop\n      pop\n      jump\t// out\n        /* \"Contract/Struct.sol\":186:205  Todo[] public todos */\n    tag_17:\n      0x00\n      dup2\n      dup2\n      sload\n      dup2\n      lt\n      tag_39\n      jumpi\n      0x00\n      dup1\n      revert\n    tag_39:\n      swap1\n      0x00\n      mstore\n      keccak256(0x00, 0x20)\n      swap1\n      0x02\n      mul\n      add\n      0x00\n      swap2\n      pop\n      swap1\n      pop\n      dup1\n      0x00\n      add\n      dup1\n      sload\n      tag_41\n      swap1\n      tag_42\n      jump\t// in\n    tag_41:\n      dup1\n      0x1f\n      add\n      0x20\n      dup1\n      swap2\n      div\n      mul\n      0x20\n      add\n      mload(0x40)\n      swap1\n      dup2\n      add\n      0x40\n      mstore\n      dup1\n      swap3\n      swap2\n      swap1\n      dup2\n      dup2\n      mstore\n      0x20\n      add\n      dup3\n      dup1\n      sload\n      tag_43\n      swap1\n      tag_42\n      jump\t// in\n    tag_43:\n      dup1\n      iszero\n      tag_44\n      jumpi\n      dup1\n      0x1f\n      lt\n      tag_45\n      jumpi\n      0x0100\n      dup1\n      dup4\n      sload\n      div\n      mul\n      dup4\n      mstore\n      swap2\n      0x20\n      add\n      swap2\n      jump(tag_44)\n    tag_45:\n      dup3\n      add\n      swap2\n      swap1\n      0x00\n      mstore\n      keccak256(0x00, 0x20)\n      swap1\n    tag_46:\n      dup2\n      sload\n      dup2\n      mstore\n      swap1\n      0x01\n      add\n      swap1\n      0x20\n      add\n      dup1\n      dup4\n      gt\n      tag_46\n      jumpi\n      dup3\n      swap1\n      sub\n      0x1f\n      and\n      dup3\n      add\n      swap2\n    tag_44:\n      pop\n      pop\n      pop\n      pop\n      pop\n      swap1\n      dup1\n      0x01\n      add\n      0x00\n      swap1\n      sload\n      swap1\n      0x0100\n      exp\n      swap1\n      div\n      0xff\n      and\n      swap1\n      pop\n      dup3\n      jump\t// out\n        /* \"Contract/Struct.sol\":804:944  function updateText(uint256 _index, string memory _text) public{... */\n    tag_23:\n        /* \"Contract/Struct.sol\":877:894  Todo storage todo */\n      0x00\n        /* \"Contract/Struct.sol\":897:902  todos */\n      dup1\n        /* \"Contract/Struct.sol\":903:909  _index */\n      dup4\n        /* \"Contract/Struct.sol\":897:910  todos[_index] */\n      dup2\n      sload\n      dup2\n      lt\n      tag_48\n      jumpi\n      tag_49\n      tag_27\n      jump\t// in\n    tag_49:\n    tag_48:\n      swap1\n      0x00\n      mstore\n      keccak256(0x00, 0x20)\n      swap1\n      0x02\n      mul\n      add\n        /* \"Contract/Struct.sol\":877:910  Todo storage todo = todos[_index] */\n      swap1\n      pop\n        /* \"Contract/Struct.sol\":932:937  _text */\n      dup2\n        /* \"Contract/Struct.sol\":920:924  todo */\n      dup2\n        /* \"Contract/Struct.sol\":920:929  todo.text */\n      0x00\n      add\n        /* \"Contract/Struct.sol\":920:937  todo.text = _text */\n      swap1\n      dup2\n      tag_51\n      swap2\n      swap1\n      tag_32\n      jump\t// in\n    tag_51:\n      pop\n        /* \"Contract/Struct.sol\":867:944  {... */\n      pop\n        /* \"Contract/Struct.sol\":804:944  function updateText(uint256 _index, string memory _text) public{... */\n      pop\n      pop\n      jump\t// out\n    tag_36:\n      mload(0x40)\n      dup1\n      0x40\n      add\n      0x40\n      mstore\n      dup1\n      0x60\n      dup2\n      mstore\n      0x20\n      add\n      iszero(iszero(0x00))\n      dup2\n      mstore\n      pop\n      swap1\n      jump\t// out\n        /* \"#utility.yul\":7:82   */\n    tag_52:\n        /* \"#utility.yul\":40:46   */\n      0x00\n        /* \"#utility.yul\":73:75   */\n      0x40\n        /* \"#utility.yul\":67:76   */\n      mload\n        /* \"#utility.yul\":57:76   */\n      swap1\n      pop\n        /* \"#utility.yul\":7:82   */\n      swap1\n      jump\t// out\n        /* \"#utility.yul\":88:205   */\n    tag_53:\n        /* \"#utility.yul\":197:198   */\n      0x00\n        /* \"#utility.yul\":194:195   */\n      dup1\n        /* \"#utility.yul\":187:199   */\n      revert\n        /* \"#utility.yul\":211:328   */\n    tag_54:\n        /* \"#utility.yul\":320:321   */\n      0x00\n        /* \"#utility.yul\":317:318   */\n      dup1\n        /* \"#utility.yul\":310:322   */\n      revert\n        /* \"#utility.yul\":334:411   */\n    tag_55:\n        /* \"#utility.yul\":371:378   */\n      0x00\n        /* \"#utility.yul\":400:405   */\n      dup2\n        /* \"#utility.yul\":389:405   */\n      swap1\n      pop\n        /* \"#utility.yul\":334:411   */\n      swap2\n      swap1\n      pop\n      jump\t// out\n        /* \"#utility.yul\":417:539   */\n    tag_56:\n        /* \"#utility.yul\":490:514   */\n      tag_99\n        /* \"#utility.yul\":508:513   */\n      dup2\n        /* \"#utility.yul\":490:514   */\n      tag_55\n      jump\t// in\n    tag_99:\n        /* \"#utility.yul\":483:488   */\n      dup2\n        /* \"#utility.yul\":480:515   */\n      eq\n        /* \"#utility.yul\":470:533   */\n      tag_100\n      jumpi\n        /* \"#utility.yul\":529:530   */\n      0x00\n        /* \"#utility.yul\":526:527   */\n      dup1\n        /* \"#utility.yul\":519:531   */\n      revert\n        /* \"#utility.yul\":470:533   */\n    tag_100:\n        /* \"#utility.yul\":417:539   */\n      pop\n      jump\t// out\n        /* \"#utility.yul\":545:684   */\n    tag_57:\n        /* \"#utility.yul\":591:596   */\n      0x00\n        /* \"#utility.yul\":629:635   */\n      dup2\n        /* \"#utility.yul\":616:636   */\n      calldataload\n        /* \"#utility.yul\":607:636   */\n      swap1\n      pop\n        /* \"#utility.yul\":645:678   */\n      tag_102\n        /* \"#utility.yul\":672:677   */\n      dup2\n        /* \"#utility.yul\":645:678   */\n      tag_56\n      jump\t// in\n    tag_102:\n        /* \"#utility.yul\":545:684   */\n      swap3\n      swap2\n      pop\n      pop\n      jump\t// out\n        /* \"#utility.yul\":690:1019   */\n    tag_9:\n        /* \"#utility.yul\":749:755   */\n      0x00\n        /* \"#utility.yul\":798:800   */\n      0x20\n        /* \"#utility.yul\":786:795   */\n      dup3\n        /* \"#utility.yul\":777:784   */\n      dup5\n        /* \"#utility.yul\":773:796   */\n      sub\n        /* \"#utility.yul\":769:801   */\n      slt\n        /* \"#utility.yul\":766:885   */\n      iszero\n      tag_104\n      jumpi\n        /* \"#utility.yul\":804:883   */\n      tag_105\n      tag_53\n      jump\t// in\n    tag_105:\n        /* \"#utility.yul\":766:885   */\n    tag_104:\n        /* \"#utility.yul\":924:925   */\n      0x00\n        /* \"#utility.yul\":949:1002   */\n      tag_106\n        /* \"#utility.yul\":994:1001   */\n      dup5\n        /* \"#utility.yul\":985:991   */\n      dup3\n        /* \"#utility.yul\":974:983   */\n      dup6\n        /* \"#utility.yul\":970:992   */\n      add\n        /* \"#utility.yul\":949:1002   */\n      tag_57\n      jump\t// in\n    tag_106:\n        /* \"#utility.yul\":939:1002   */\n      swap2\n      pop\n        /* \"#utility.yul\":895:1012   */\n      pop\n        /* \"#utility.yul\":690:1019   */\n      swap3\n      swap2\n      pop\n      pop\n      jump\t// out\n        /* \"#utility.yul\":1025:1142   */\n    tag_58:\n        /* \"#utility.yul\":1134:1135   */\n      0x00\n        /* \"#utility.yul\":1131:1132   */\n      dup1\n        /* \"#utility.yul\":1124:1136   */\n      revert\n        /* \"#utility.yul\":1148:1265   */\n    tag_59:\n        /* \"#utility.yul\":1257:1258   */\n      0x00\n        /* \"#utility.yul\":1254:1255   */\n      dup1\n        /* \"#utility.yul\":1247:1259   */\n      revert\n        /* \"#utility.yul\":1271:1388   */\n    tag_60:\n        /* \"#utility.yul\":1380:1381   */\n      0x00\n        /* \"#utility.yul\":1377:1378   */\n      dup1\n        /* \"#utility.yul\":1370:1382   */\n      revert\n        /* \"#utility.yul\":1408:1961   */\n    tag_61:\n        /* \"#utility.yul\":1466:1474   */\n      0x00\n        /* \"#utility.yul\":1476:1482   */\n      dup1\n        /* \"#utility.yul\":1526:1529   */\n      dup4\n        /* \"#utility.yul\":1519:1523   */\n      0x1f\n        /* \"#utility.yul\":1511:1517   */\n      dup5\n        /* \"#utility.yul\":1507:1524   */\n      add\n        /* \"#utility.yul\":1503:1530   */\n      slt\n        /* \"#utility.yul\":1493:1615   */\n      tag_111\n      jumpi\n        /* \"#utility.yul\":1534:1613   */\n      tag_112\n      tag_58\n      jump\t// in\n    tag_112:\n        /* \"#utility.yul\":1493:1615   */\n    tag_111:\n        /* \"#utility.yul\":1647:1653   */\n      dup3\n        /* \"#utility.yul\":1634:1654   */\n      calldataload\n        /* \"#utility.yul\":1624:1654   */\n      swap1\n      pop\n        /* \"#utility.yul\":1677:1695   */\n      0xffffffffffffffff\n        /* \"#utility.yul\":1669:1675   */\n      dup2\n        /* \"#utility.yul\":1666:1696   */\n      gt\n        /* \"#utility.yul\":1663:1780   */\n      iszero\n      tag_113\n      jumpi\n        /* \"#utility.yul\":1699:1778   */\n      tag_114\n      tag_59\n      jump\t// in\n    tag_114:\n        /* \"#utility.yul\":1663:1780   */\n    tag_113:\n        /* \"#utility.yul\":1813:1817   */\n      0x20\n        /* \"#utility.yul\":1805:1811   */\n      dup4\n        /* \"#utility.yul\":1801:1818   */\n      add\n        /* \"#utility.yul\":1789:1818   */\n      swap2\n      pop\n        /* \"#utility.yul\":1867:1870   */\n      dup4\n        /* \"#utility.yul\":1859:1863   */\n      0x01\n        /* \"#utility.yul\":1851:1857   */\n      dup3\n        /* \"#utility.yul\":1847:1864   */\n      mul\n        /* \"#utility.yul\":1837:1845   */\n      dup4\n        /* \"#utility.yul\":1833:1865   */\n      add\n        /* \"#utility.yul\":1830:1871   */\n      gt\n        /* \"#utility.yul\":1827:1955   */\n      iszero\n      tag_115\n      jumpi\n        /* \"#utility.yul\":1874:1953   */\n      tag_116\n      tag_60\n      jump\t// in\n    tag_116:\n        /* \"#utility.yul\":1827:1955   */\n    tag_115:\n        /* \"#utility.yul\":1408:1961   */\n      swap3\n      pop\n      swap3\n      swap1\n      pop\n      jump\t// out\n        /* \"#utility.yul\":1967:2496   */\n    tag_13:\n        /* \"#utility.yul\":2038:2044   */\n      0x00\n        /* \"#utility.yul\":2046:2052   */\n      dup1\n        /* \"#utility.yul\":2095:2097   */\n      0x20\n        /* \"#utility.yul\":2083:2092   */\n      dup4\n        /* \"#utility.yul\":2074:2081   */\n      dup6\n        /* \"#utility.yul\":2070:2093   */\n      sub\n        /* \"#utility.yul\":2066:2098   */\n      slt\n        /* \"#utility.yul\":2063:2182   */\n      iszero\n      tag_118\n      jumpi\n        /* \"#utility.yul\":2101:2180   */\n      tag_119\n      tag_53\n      jump\t// in\n    tag_119:\n        /* \"#utility.yul\":2063:2182   */\n    tag_118:\n        /* \"#utility.yul\":2249:2250   */\n      0x00\n        /* \"#utility.yul\":2238:2247   */\n      dup4\n        /* \"#utility.yul\":2234:2251   */\n      add\n        /* \"#utility.yul\":2221:2252   */\n      calldataload\n        /* \"#utility.yul\":2279:2297   */\n      0xffffffffffffffff\n        /* \"#utility.yul\":2271:2277   */\n      dup2\n        /* \"#utility.yul\":2268:2298   */\n      gt\n        /* \"#utility.yul\":2265:2382   */\n      iszero\n      tag_120\n      jumpi\n        /* \"#utility.yul\":2301:2380   */\n      tag_121\n      tag_54\n      jump\t// in\n    tag_121:\n        /* \"#utility.yul\":2265:2382   */\n    tag_120:\n        /* \"#utility.yul\":2414:2479   */\n      tag_122\n        /* \"#utility.yul\":2471:2478   */\n      dup6\n        /* \"#utility.yul\":2462:2468   */\n      dup3\n        /* \"#utility.yul\":2451:2460   */\n      dup7\n        /* \"#utility.yul\":2447:2469   */\n      add\n        /* \"#utility.yul\":2414:2479   */\n      tag_61\n      jump\t// in\n    tag_122:\n        /* \"#utility.yul\":2396:2479   */\n      swap3\n      pop\n      swap3\n      pop\n        /* \"#utility.yul\":2192:2489   */\n      pop\n        /* \"#utility.yul\":1967:2496   */\n      swap3\n      pop\n      swap3\n      swap1\n      pop\n      jump\t// out\n        /* \"#utility.yul\":2502:2601   */\n    tag_62:\n        /* \"#utility.yul\":2554:2560   */\n      0x00\n        /* \"#utility.yul\":2588:2593   */\n      dup2\n        /* \"#utility.yul\":2582:2594   */\n      mload\n        /* \"#utility.yul\":2572:2594   */\n      swap1\n      pop\n        /* \"#utility.yul\":2502:2601   */\n      swap2\n      swap1\n      pop\n      jump\t// out\n        /* \"#utility.yul\":2607:2776   */\n    tag_63:\n        /* \"#utility.yul\":2691:2702   */\n      0x00\n        /* \"#utility.yul\":2725:2731   */\n      dup3\n        /* \"#utility.yul\":2720:2723   */\n      dup3\n        /* \"#utility.yul\":2713:2732   */\n      mstore\n        /* \"#utility.yul\":2765:2769   */\n      0x20\n        /* \"#utility.yul\":2760:2763   */\n      dup3\n        /* \"#utility.yul\":2756:2770   */\n      add\n        /* \"#utility.yul\":2741:2770   */\n      swap1\n      pop\n        /* \"#utility.yul\":2607:2776   */\n      swap3\n      swap2\n      pop\n      pop\n      jump\t// out\n        /* \"#utility.yul\":2782:2921   */\n    tag_64:\n        /* \"#utility.yul\":2871:2877   */\n      dup3\n        /* \"#utility.yul\":2866:2869   */\n      dup2\n        /* \"#utility.yul\":2861:2864   */\n      dup4\n        /* \"#utility.yul\":2855:2878   */\n      mcopy\n        /* \"#utility.yul\":2912:2913   */\n      0x00\n        /* \"#utility.yul\":2903:2909   */\n      dup4\n        /* \"#utility.yul\":2898:2901   */\n      dup4\n        /* \"#utility.yul\":2894:2910   */\n      add\n        /* \"#utility.yul\":2887:2914   */\n      mstore\n        /* \"#utility.yul\":2782:2921   */\n      pop\n      pop\n      pop\n      jump\t// out\n        /* \"#utility.yul\":2927:3029   */\n    tag_65:\n        /* \"#utility.yul\":2968:2974   */\n      0x00\n        /* \"#utility.yul\":3019:3021   */\n      0x1f\n        /* \"#utility.yul\":3015:3022   */\n      not\n        /* \"#utility.yul\":3010:3012   */\n      0x1f\n        /* \"#utility.yul\":3003:3008   */\n      dup4\n        /* \"#utility.yul\":2999:3013   */\n      add\n        /* \"#utility.yul\":2995:3023   */\n      and\n        /* \"#utility.yul\":2985:3023   */\n      swap1\n      pop\n        /* \"#utility.yul\":2927:3029   */\n      swap2\n      swap1\n      pop\n      jump\t// out\n        /* \"#utility.yul\":3035:3412   */\n    tag_66:\n        /* \"#utility.yul\":3123:3126   */\n      0x00\n        /* \"#utility.yul\":3151:3190   */\n      tag_128\n        /* \"#utility.yul\":3184:3189   */\n      dup3\n        /* \"#utility.yul\":3151:3190   */\n      tag_62\n      jump\t// in\n    tag_128:\n        /* \"#utility.yul\":3206:3277   */\n      tag_129\n        /* \"#utility.yul\":3270:3276   */\n      dup2\n        /* \"#utility.yul\":3265:3268   */\n      dup6\n        /* \"#utility.yul\":3206:3277   */\n      tag_63\n      jump\t// in\n    tag_129:\n        /* \"#utility.yul\":3199:3277   */\n      swap4\n      pop\n        /* \"#utility.yul\":3286:3351   */\n      tag_130\n        /* \"#utility.yul\":3344:3350   */\n      dup2\n        /* \"#utility.yul\":3339:3342   */\n      dup6\n        /* \"#utility.yul\":3332:3336   */\n      0x20\n        /* \"#utility.yul\":3325:3330   */\n      dup7\n        /* \"#utility.yul\":3321:3337   */\n      add\n        /* \"#utility.yul\":3286:3351   */\n      tag_64\n      jump\t// in\n    tag_130:\n        /* \"#utility.yul\":3376:3405   */\n      tag_131\n        /* \"#utility.yul\":3398:3404   */\n      dup2\n        /* \"#utility.yul\":3376:3405   */\n      tag_65\n      jump\t// in\n    tag_131:\n        /* \"#utility.yul\":3371:3374   */\n      dup5\n        /* \"#utility.yul\":3367:3406   */\n      add\n        /* \"#utility.yul\":3360:3406   */\n      swap2\n      pop\n        /* \"#utility.yul\":3127:3412   */\n      pop\n        /* \"#utility.yul\":3035:3412   */\n      swap3\n      swap2\n      pop\n      pop\n      jump\t// out\n        /* \"#utility.yul\":3418:3508   */\n    tag_67:\n        /* \"#utility.yul\":3452:3459   */\n      0x00\n        /* \"#utility.yul\":3495:3500   */\n      dup2\n        /* \"#utility.yul\":3488:3501   */\n      iszero\n        /* \"#utility.yul\":3481:3502   */\n      iszero\n        /* \"#utility.yul\":3470:3502   */\n      swap1\n      pop\n        /* \"#utility.yul\":3418:3508   */\n      swap2\n      swap1\n      pop\n      jump\t// out\n        /* \"#utility.yul\":3514:3623   */\n    tag_68:\n        /* \"#utility.yul\":3595:3616   */\n      tag_134\n        /* \"#utility.yul\":3610:3615   */\n      dup2\n        /* \"#utility.yul\":3595:3616   */\n      tag_67\n      jump\t// in\n    tag_134:\n        /* \"#utility.yul\":3590:3593   */\n      dup3\n        /* \"#utility.yul\":3583:3617   */\n      mstore\n        /* \"#utility.yul\":3514:3623   */\n      pop\n      pop\n      jump\t// out\n        /* \"#utility.yul\":3629:4040   */\n    tag_19:\n        /* \"#utility.yul\":3764:3768   */\n      0x00\n        /* \"#utility.yul\":3802:3804   */\n      0x40\n        /* \"#utility.yul\":3791:3800   */\n      dup3\n        /* \"#utility.yul\":3787:3805   */\n      add\n        /* \"#utility.yul\":3779:3805   */\n      swap1\n      pop\n        /* \"#utility.yul\":3851:3860   */\n      dup2\n        /* \"#utility.yul\":3845:3849   */\n      dup2\n        /* \"#utility.yul\":3841:3861   */\n      sub\n        /* \"#utility.yul\":3837:3838   */\n      0x00\n        /* \"#utility.yul\":3826:3835   */\n      dup4\n        /* \"#utility.yul\":3822:3839   */\n      add\n        /* \"#utility.yul\":3815:3862   */\n      mstore\n        /* \"#utility.yul\":3879:3957   */\n      tag_136\n        /* \"#utility.yul\":3952:3956   */\n      dup2\n        /* \"#utility.yul\":3943:3949   */\n      dup6\n        /* \"#utility.yul\":3879:3957   */\n      tag_66\n      jump\t// in\n    tag_136:\n        /* \"#utility.yul\":3871:3957   */\n      swap1\n      pop\n        /* \"#utility.yul\":3967:4033   */\n      tag_137\n        /* \"#utility.yul\":4029:4031   */\n      0x20\n        /* \"#utility.yul\":4018:4027   */\n      dup4\n        /* \"#utility.yul\":4014:4032   */\n      add\n        /* \"#utility.yul\":4005:4011   */\n      dup5\n        /* \"#utility.yul\":3967:4033   */\n      tag_68\n      jump\t// in\n    tag_137:\n        /* \"#utility.yul\":3629:4040   */\n      swap4\n      swap3\n      pop\n      pop\n      pop\n      jump\t// out\n        /* \"#utility.yul\":4046:4163   */\n    tag_69:\n        /* \"#utility.yul\":4155:4156   */\n      0x00\n        /* \"#utility.yul\":4152:4153   */\n      dup1\n        /* \"#utility.yul\":4145:4157   */\n      revert\n        /* \"#utility.yul\":4169:4349   */\n    tag_70:\n        /* \"#utility.yul\":4217:4294   */\n      0x4e487b7100000000000000000000000000000000000000000000000000000000\n        /* \"#utility.yul\":4214:4215   */\n      0x00\n        /* \"#utility.yul\":4207:4295   */\n      mstore\n        /* \"#utility.yul\":4314:4318   */\n      0x41\n        /* \"#utility.yul\":4311:4312   */\n      0x04\n        /* \"#utility.yul\":4304:4319   */\n      mstore\n        /* \"#utility.yul\":4338:4342   */\n      0x24\n        /* \"#utility.yul\":4335:4336   */\n      0x00\n        /* \"#utility.yul\":4328:4343   */\n      revert\n        /* \"#utility.yul\":4355:4636   */\n    tag_71:\n        /* \"#utility.yul\":4438:4465   */\n      tag_141\n        /* \"#utility.yul\":4460:4464   */\n      dup3\n        /* \"#utility.yul\":4438:4465   */\n      tag_65\n      jump\t// in\n    tag_141:\n        /* \"#utility.yul\":4430:4436   */\n      dup2\n        /* \"#utility.yul\":4426:4466   */\n      add\n        /* \"#utility.yul\":4568:4574   */\n      dup2\n        /* \"#utility.yul\":4556:4566   */\n      dup2\n        /* \"#utility.yul\":4553:4575   */\n      lt\n        /* \"#utility.yul\":4532:4550   */\n      0xffffffffffffffff\n        /* \"#utility.yul\":4520:4530   */\n      dup3\n        /* \"#utility.yul\":4517:4551   */\n      gt\n        /* \"#utility.yul\":4514:4576   */\n      or\n        /* \"#utility.yul\":4511:4599   */\n      iszero\n      tag_142\n      jumpi\n        /* \"#utility.yul\":4579:4597   */\n      tag_143\n      tag_70\n      jump\t// in\n    tag_143:\n        /* \"#utility.yul\":4511:4599   */\n    tag_142:\n        /* \"#utility.yul\":4619:4629   */\n      dup1\n        /* \"#utility.yul\":4615:4617   */\n      0x40\n        /* \"#utility.yul\":4608:4630   */\n      mstore\n        /* \"#utility.yul\":4398:4636   */\n      pop\n        /* \"#utility.yul\":4355:4636   */\n      pop\n      pop\n      jump\t// out\n        /* \"#utility.yul\":4642:4771   */\n    tag_72:\n        /* \"#utility.yul\":4676:4682   */\n      0x00\n        /* \"#utility.yul\":4703:4723   */\n      tag_145\n      tag_52\n      jump\t// in\n    tag_145:\n        /* \"#utility.yul\":4693:4723   */\n      swap1\n      pop\n        /* \"#utility.yul\":4732:4765   */\n      tag_146\n        /* \"#utility.yul\":4760:4764   */\n      dup3\n        /* \"#utility.yul\":4752:4758   */\n      dup3\n        /* \"#utility.yul\":4732:4765   */\n      tag_71\n      jump\t// in\n    tag_146:\n        /* \"#utility.yul\":4642:4771   */\n      swap2\n      swap1\n      pop\n      jump\t// out\n        /* \"#utility.yul\":4777:5085   */\n    tag_73:\n        /* \"#utility.yul\":4839:4843   */\n      0x00\n        /* \"#utility.yul\":4929:4947   */\n      0xffffffffffffffff\n        /* \"#utility.yul\":4921:4927   */\n      dup3\n        /* \"#utility.yul\":4918:4948   */\n      gt\n        /* \"#utility.yul\":4915:4971   */\n      iszero\n      tag_148\n      jumpi\n        /* \"#utility.yul\":4951:4969   */\n      tag_149\n      tag_70\n      jump\t// in\n    tag_149:\n        /* \"#utility.yul\":4915:4971   */\n    tag_148:\n        /* \"#utility.yul\":4989:5018   */\n      tag_150\n        /* \"#utility.yul\":5011:5017   */\n      dup3\n        /* \"#utility.yul\":4989:5018   */\n      tag_65\n      jump\t// in\n    tag_150:\n        /* \"#utility.yul\":4981:5018   */\n      swap1\n      pop\n        /* \"#utility.yul\":5073:5077   */\n      0x20\n        /* \"#utility.yul\":5067:5071   */\n      dup2\n        /* \"#utility.yul\":5063:5078   */\n      add\n        /* \"#utility.yul\":5055:5078   */\n      swap1\n      pop\n        /* \"#utility.yul\":4777:5085   */\n      swap2\n      swap1\n      pop\n      jump\t// out\n        /* \"#utility.yul\":5091:5239   */\n    tag_74:\n        /* \"#utility.yul\":5189:5195   */\n      dup3\n        /* \"#utility.yul\":5184:5187   */\n      dup2\n        /* \"#utility.yul\":5179:5182   */\n      dup4\n        /* \"#utility.yul\":5166:5196   */\n      calldatacopy\n        /* \"#utility.yul\":5230:5231   */\n      0x00\n        /* \"#utility.yul\":5221:5227   */\n      dup4\n        /* \"#utility.yul\":5216:5219   */\n      dup4\n        /* \"#utility.yul\":5212:5228   */\n      add\n        /* \"#utility.yul\":5205:5232   */\n      mstore\n        /* \"#utility.yul\":5091:5239   */\n      pop\n      pop\n      pop\n      jump\t// out\n        /* \"#utility.yul\":5245:5670   */\n    tag_75:\n        /* \"#utility.yul\":5323:5328   */\n      0x00\n        /* \"#utility.yul\":5348:5414   */\n      tag_153\n        /* \"#utility.yul\":5364:5413   */\n      tag_154\n        /* \"#utility.yul\":5406:5412   */\n      dup5\n        /* \"#utility.yul\":5364:5413   */\n      tag_73\n      jump\t// in\n    tag_154:\n        /* \"#utility.yul\":5348:5414   */\n      tag_72\n      jump\t// in\n    tag_153:\n        /* \"#utility.yul\":5339:5414   */\n      swap1\n      pop\n        /* \"#utility.yul\":5437:5443   */\n      dup3\n        /* \"#utility.yul\":5430:5435   */\n      dup2\n        /* \"#utility.yul\":5423:5444   */\n      mstore\n        /* \"#utility.yul\":5475:5479   */\n      0x20\n        /* \"#utility.yul\":5468:5473   */\n      dup2\n        /* \"#utility.yul\":5464:5480   */\n      add\n        /* \"#utility.yul\":5513:5516   */\n      dup5\n        /* \"#utility.yul\":5504:5510   */\n      dup5\n        /* \"#utility.yul\":5499:5502   */\n      dup5\n        /* \"#utility.yul\":5495:5511   */\n      add\n        /* \"#utility.yul\":5492:5517   */\n      gt\n        /* \"#utility.yul\":5489:5601   */\n      iszero\n      tag_155\n      jumpi\n        /* \"#utility.yul\":5520:5599   */\n      tag_156\n      tag_69\n      jump\t// in\n    tag_156:\n        /* \"#utility.yul\":5489:5601   */\n    tag_155:\n        /* \"#utility.yul\":5610:5664   */\n      tag_157\n        /* \"#utility.yul\":5657:5663   */\n      dup5\n        /* \"#utility.yul\":5652:5655   */\n      dup3\n        /* \"#utility.yul\":5647:5650   */\n      dup6\n        /* \"#utility.yul\":5610:5664   */\n      tag_74\n      jump\t// in\n    tag_157:\n        /* \"#utility.yul\":5329:5670   */\n      pop\n        /* \"#utility.yul\":5245:5670   */\n      swap4\n      swap3\n      pop\n      pop\n      pop\n      jump\t// out\n        /* \"#utility.yul\":5690:6030   */\n    tag_76:\n        /* \"#utility.yul\":5746:5751   */\n      0x00\n        /* \"#utility.yul\":5795:5798   */\n      dup3\n        /* \"#utility.yul\":5788:5792   */\n      0x1f\n        /* \"#utility.yul\":5780:5786   */\n      dup4\n        /* \"#utility.yul\":5776:5793   */\n      add\n        /* \"#utility.yul\":5772:5799   */\n      slt\n        /* \"#utility.yul\":5762:5884   */\n      tag_159\n      jumpi\n        /* \"#utility.yul\":5803:5882   */\n      tag_160\n      tag_58\n      jump\t// in\n    tag_160:\n        /* \"#utility.yul\":5762:5884   */\n    tag_159:\n        /* \"#utility.yul\":5920:5926   */\n      dup2\n        /* \"#utility.yul\":5907:5927   */\n      calldataload\n        /* \"#utility.yul\":5945:6024   */\n      tag_161\n        /* \"#utility.yul\":6020:6023   */\n      dup5\n        /* \"#utility.yul\":6012:6018   */\n      dup3\n        /* \"#utility.yul\":6005:6009   */\n      0x20\n        /* \"#utility.yul\":5997:6003   */\n      dup7\n        /* \"#utility.yul\":5993:6010   */\n      add\n        /* \"#utility.yul\":5945:6024   */\n      tag_75\n      jump\t// in\n    tag_161:\n        /* \"#utility.yul\":5936:6024   */\n      swap2\n      pop\n        /* \"#utility.yul\":5752:6030   */\n      pop\n        /* \"#utility.yul\":5690:6030   */\n      swap3\n      swap2\n      pop\n      pop\n      jump\t// out\n        /* \"#utility.yul\":6036:6690   */\n    tag_22:\n        /* \"#utility.yul\":6114:6120   */\n      0x00\n        /* \"#utility.yul\":6122:6128   */\n      dup1\n        /* \"#utility.yul\":6171:6173   */\n      0x40\n        /* \"#utility.yul\":6159:6168   */\n      dup4\n        /* \"#utility.yul\":6150:6157   */\n      dup6\n        /* \"#utility.yul\":6146:6169   */\n      sub\n        /* \"#utility.yul\":6142:6174   */\n      slt\n        /* \"#utility.yul\":6139:6258   */\n      iszero\n      tag_163\n      jumpi\n        /* \"#utility.yul\":6177:6256   */\n      tag_164\n      tag_53\n      jump\t// in\n    tag_164:\n        /* \"#utility.yul\":6139:6258   */\n    tag_163:\n        /* \"#utility.yul\":6297:6298   */\n      0x00\n        /* \"#utility.yul\":6322:6375   */\n      tag_165\n        /* \"#utility.yul\":6367:6374   */\n      dup6\n        /* \"#utility.yul\":6358:6364   */\n      dup3\n        /* \"#utility.yul\":6347:6356   */\n      dup7\n        /* \"#utility.yul\":6343:6365   */\n      add\n        /* \"#utility.yul\":6322:6375   */\n      tag_57\n      jump\t// in\n    tag_165:\n        /* \"#utility.yul\":6312:6375   */\n      swap3\n      pop\n        /* \"#utility.yul\":6268:6385   */\n      pop\n        /* \"#utility.yul\":6452:6454   */\n      0x20\n        /* \"#utility.yul\":6441:6450   */\n      dup4\n        /* \"#utility.yul\":6437:6455   */\n      add\n        /* \"#utility.yul\":6424:6456   */\n      calldataload\n        /* \"#utility.yul\":6483:6501   */\n      0xffffffffffffffff\n        /* \"#utility.yul\":6475:6481   */\n      dup2\n        /* \"#utility.yul\":6472:6502   */\n      gt\n        /* \"#utility.yul\":6469:6586   */\n      iszero\n      tag_166\n      jumpi\n        /* \"#utility.yul\":6505:6584   */\n      tag_167\n      tag_54\n      jump\t// in\n    tag_167:\n        /* \"#utility.yul\":6469:6586   */\n    tag_166:\n        /* \"#utility.yul\":6610:6673   */\n      tag_168\n        /* \"#utility.yul\":6665:6672   */\n      dup6\n        /* \"#utility.yul\":6656:6662   */\n      dup3\n        /* \"#utility.yul\":6645:6654   */\n      dup7\n        /* \"#utility.yul\":6641:6663   */\n      add\n        /* \"#utility.yul\":6610:6673   */\n      tag_76\n      jump\t// in\n    tag_168:\n        /* \"#utility.yul\":6600:6673   */\n      swap2\n      pop\n        /* \"#utility.yul\":6395:6683   */\n      pop\n        /* \"#utility.yul\":6036:6690   */\n      swap3\n      pop\n      swap3\n      swap1\n      pop\n      jump\t// out\n        /* \"#utility.yul\":6696:6876   */\n    tag_27:\n        /* \"#utility.yul\":6744:6821   */\n      0x4e487b7100000000000000000000000000000000000000000000000000000000\n        /* \"#utility.yul\":6741:6742   */\n      0x00\n        /* \"#utility.yul\":6734:6822   */\n      mstore\n        /* \"#utility.yul\":6841:6845   */\n      0x32\n        /* \"#utility.yul\":6838:6839   */\n      0x04\n        /* \"#utility.yul\":6831:6846   */\n      mstore\n        /* \"#utility.yul\":6865:6869   */\n      0x24\n        /* \"#utility.yul\":6862:6863   */\n      0x00\n        /* \"#utility.yul\":6855:6870   */\n      revert\n        /* \"#utility.yul\":6882:7062   */\n    tag_77:\n        /* \"#utility.yul\":6930:7007   */\n      0x4e487b7100000000000000000000000000000000000000000000000000000000\n        /* \"#utility.yul\":6927:6928   */\n      0x00\n        /* \"#utility.yul\":6920:7008   */\n      mstore\n        /* \"#utility.yul\":7027:7031   */\n      0x22\n        /* \"#utility.yul\":7024:7025   */\n      0x04\n        /* \"#utility.yul\":7017:7032   */\n      mstore\n        /* \"#utility.yul\":7051:7055   */\n      0x24\n        /* \"#utility.yul\":7048:7049   */\n      0x00\n        /* \"#utility.yul\":7041:7056   */\n      revert\n        /* \"#utility.yul\":7068:7388   */\n    tag_42:\n        /* \"#utility.yul\":7112:7118   */\n      0x00\n        /* \"#utility.yul\":7149:7150   */\n      0x02\n        /* \"#utility.yul\":7143:7147   */\n      dup3\n        /* \"#utility.yul\":7139:7151   */\n      div\n        /* \"#utility.yul\":7129:7151   */\n      swap1\n      pop\n        /* \"#utility.yul\":7196:7197   */\n      0x01\n        /* \"#utility.yul\":7190:7194   */\n      dup3\n        /* \"#utility.yul\":7186:7198   */\n      and\n        /* \"#utility.yul\":7217:7235   */\n      dup1\n        /* \"#utility.yul\":7207:7288   */\n      tag_172\n      jumpi\n        /* \"#utility.yul\":7273:7277   */\n      0x7f\n        /* \"#utility.yul\":7265:7271   */\n      dup3\n        /* \"#utility.yul\":7261:7278   */\n      and\n        /* \"#utility.yul\":7251:7278   */\n      swap2\n      pop\n        /* \"#utility.yul\":7207:7288   */\n    tag_172:\n        /* \"#utility.yul\":7335:7337   */\n      0x20\n        /* \"#utility.yul\":7327:7333   */\n      dup3\n        /* \"#utility.yul\":7324:7338   */\n      lt\n        /* \"#utility.yul\":7304:7322   */\n      dup2\n        /* \"#utility.yul\":7301:7339   */\n      sub\n        /* \"#utility.yul\":7298:7382   */\n      tag_173\n      jumpi\n        /* \"#utility.yul\":7354:7372   */\n      tag_174\n      tag_77\n      jump\t// in\n    tag_174:\n        /* \"#utility.yul\":7298:7382   */\n    tag_173:\n        /* \"#utility.yul\":7119:7388   */\n      pop\n        /* \"#utility.yul\":7068:7388   */\n      swap2\n      swap1\n      pop\n      jump\t// out\n        /* \"#utility.yul\":7394:7535   */\n    tag_78:\n        /* \"#utility.yul\":7443:7447   */\n      0x00\n        /* \"#utility.yul\":7466:7469   */\n      dup2\n        /* \"#utility.yul\":7458:7469   */\n      swap1\n      pop\n        /* \"#utility.yul\":7489:7492   */\n      dup2\n        /* \"#utility.yul\":7486:7487   */\n      0x00\n        /* \"#utility.yul\":7479:7493   */\n      mstore\n        /* \"#utility.yul\":7523:7527   */\n      0x20\n        /* \"#utility.yul\":7520:7521   */\n      0x00\n        /* \"#utility.yul\":7510:7528   */\n      keccak256\n        /* \"#utility.yul\":7502:7528   */\n      swap1\n      pop\n        /* \"#utility.yul\":7394:7535   */\n      swap2\n      swap1\n      pop\n      jump\t// out\n        /* \"#utility.yul\":7541:7634   */\n    tag_79:\n        /* \"#utility.yul\":7578:7584   */\n      0x00\n        /* \"#utility.yul\":7625:7627   */\n      0x20\n        /* \"#utility.yul\":7620:7622   */\n      0x1f\n        /* \"#utility.yul\":7613:7618   */\n      dup4\n        /* \"#utility.yul\":7609:7623   */\n      add\n        /* \"#utility.yul\":7605:7628   */\n      div\n        /* \"#utility.yul\":7595:7628   */\n      swap1\n      pop\n        /* \"#utility.yul\":7541:7634   */\n      swap2\n      swap1\n      pop\n      jump\t// out\n        /* \"#utility.yul\":7640:7747   */\n    tag_80:\n        /* \"#utility.yul\":7684:7692   */\n      0x00\n        /* \"#utility.yul\":7734:7739   */\n      dup3\n        /* \"#utility.yul\":7728:7732   */\n      dup3\n        /* \"#utility.yul\":7724:7740   */\n      shl\n        /* \"#utility.yul\":7703:7740   */\n      swap1\n      pop\n        /* \"#utility.yul\":7640:7747   */\n      swap3\n      swap2\n      pop\n      pop\n      jump\t// out\n        /* \"#utility.yul\":7753:8146   */\n    tag_81:\n        /* \"#utility.yul\":7822:7828   */\n      0x00\n        /* \"#utility.yul\":7872:7873   */\n      0x08\n        /* \"#utility.yul\":7860:7870   */\n      dup4\n        /* \"#utility.yul\":7856:7874   */\n      mul\n        /* \"#utility.yul\":7895:7992   */\n      tag_179\n        /* \"#utility.yul\":7925:7991   */\n      0xffffffffffffffffffffffffffffffffffffffffffffffffffffffffffffffff\n        /* \"#utility.yul\":7914:7923   */\n      dup3\n        /* \"#utility.yul\":7895:7992   */\n      tag_80\n      jump\t// in\n    tag_179:\n        /* \"#utility.yul\":8013:8052   */\n      tag_180\n        /* \"#utility.yul\":8043:8051   */\n      dup7\n        /* \"#utility.yul\":8032:8041   */\n      dup4\n        /* \"#utility.yul\":8013:8052   */\n      tag_80\n      jump\t// in\n    tag_180:\n        /* \"#utility.yul\":8001:8052   */\n      swap6\n      pop\n        /* \"#utility.yul\":8085:8089   */\n      dup1\n        /* \"#utility.yul\":8081:8090   */\n      not\n        /* \"#utility.yul\":8074:8079   */\n      dup5\n        /* \"#utility.yul\":8070:8091   */\n      and\n        /* \"#utility.yul\":8061:8091   */\n      swap4\n      pop\n        /* \"#utility.yul\":8134:8138   */\n      dup1\n        /* \"#utility.yul\":8124:8132   */\n      dup7\n        /* \"#utility.yul\":8120:8139   */\n      and\n        /* \"#utility.yul\":8113:8118   */\n      dup5\n        /* \"#utility.yul\":8110:8140   */\n      or\n        /* \"#utility.yul\":8100:8140   */\n      swap3\n      pop\n        /* \"#utility.yul\":7829:8146   */\n      pop\n      pop\n        /* \"#utility.yul\":7753:8146   */\n      swap4\n      swap3\n      pop\n      pop\n      pop\n      jump\t// out\n        /* \"#utility.yul\":8152:8212   */\n    tag_82:\n        /* \"#utility.yul\":8180:8183   */\n      0x00\n        /* \"#utility.yul\":8201:8206   */\n      dup2\n        /* \"#utility.yul\":8194:8206   */\n      swap1\n      pop\n        /* \"#utility.yul\":8152:8212   */\n      swap2\n      swap1\n      pop\n      jump\t// out\n        /* \"#utility.yul\":8218:8360   */\n    tag_83:\n        /* \"#utility.yul\":8268:8277   */\n      0x00\n        /* \"#utility.yul\":8301:8354   */\n      tag_183\n        /* \"#utility.yul\":8319:8353   */\n      tag_184\n        /* \"#utility.yul\":8328:8352   */\n      tag_185\n        /* \"#utility.yul\":8346:8351   */\n      dup5\n        /* \"#utility.yul\":8328:8352   */\n      tag_55\n      jump\t// in\n    tag_185:\n        /* \"#utility.yul\":8319:8353   */\n      tag_82\n      jump\t// in\n    tag_184:\n        /* \"#utility.yul\":8301:8354   */\n      tag_55\n      jump\t// in\n    tag_183:\n        /* \"#utility.yul\":8288:8354   */\n      swap1\n      pop\n        /* \"#utility.yul\":8218:8360   */\n      swap2\n      swap1\n      pop\n      jump\t// out\n        /* \"#utility.yul\":8366:8441   */\n    tag_84:\n        /* \"#utility.yul\":8409:8412   */\n      0x00\n        /* \"#utility.yul\":8430:8435   */\n      dup2\n        /* \"#utility.yul\":8423:8435   */\n      swap1\n      pop\n        /* \"#utility.yul\":8366:8441   */\n      swap2\n      swap1\n      pop\n      jump\t// out\n        /* \"#utility.yul\":8447:8716   */\n    tag_85:\n        /* \"#utility.yul\":8557:8596   */\n      tag_188\n        /* \"#utility.yul\":8588:8595   */\n      dup4\n        /* \"#utility.yul\":8557:8596   */\n      tag_83\n      jump\t// in\n    tag_188:\n        /* \"#utility.yul\":8618:8709   */\n      tag_189\n        /* \"#utility.yul\":8667:8708   */\n      tag_190\n        /* \"#utility.yul\":8691:8707   */\n      dup3\n        /* \"#utility.yul\":8667:8708   */\n      tag_84\n      jump\t// in\n    tag_190:\n        /* \"#utility.yul\":8659:8665   */\n      dup5\n        /* \"#utility.yul\":8652:8656   */\n      dup5\n        /* \"#utility.yul\":8646:8657   */\n      sload\n        /* \"#utility.yul\":8618:8709   */\n      tag_81\n      jump\t// in\n    tag_189:\n        /* \"#utility.yul\":8612:8616   */\n      dup3\n        /* \"#utility.yul\":8605:8710   */\n      sstore\n        /* \"#utility.yul\":8523:8716   */\n      pop\n        /* \"#utility.yul\":8447:8716   */\n      pop\n      pop\n      pop\n      jump\t// out\n        /* \"#utility.yul\":8722:8795   */\n    tag_86:\n        /* \"#utility.yul\":8767:8770   */\n      0x00\n        /* \"#utility.yul\":8722:8795   */\n      swap1\n      jump\t// out\n        /* \"#utility.yul\":8801:8990   */\n    tag_87:\n        /* \"#utility.yul\":8878:8910   */\n      tag_193\n      tag_86\n      jump\t// in\n    tag_193:\n        /* \"#utility.yul\":8919:8984   */\n      tag_194\n        /* \"#utility.yul\":8977:8983   */\n      dup2\n        /* \"#utility.yul\":8969:8975   */\n      dup5\n        /* \"#utility.yul\":8963:8967   */\n      dup5\n        /* \"#utility.yul\":8919:8984   */\n      tag_85\n      jump\t// in\n    tag_194:\n        /* \"#utility.yul\":8854:8990   */\n      pop\n        /* \"#utility.yul\":8801:8990   */\n      pop\n      pop\n      jump\t// out\n        /* \"#utility.yul\":8996:9182   */\n    tag_88:\n        /* \"#utility.yul\":9056:9176   */\n    tag_196:\n        /* \"#utility.yul\":9073:9076   */\n      dup2\n        /* \"#utility.yul\":9066:9071   */\n      dup2\n        /* \"#utility.yul\":9063:9077   */\n      lt\n        /* \"#utility.yul\":9056:9176   */\n      iszero\n      tag_198\n      jumpi\n        /* \"#utility.yul\":9127:9166   */\n      tag_199\n        /* \"#utility.yul\":9164:9165   */\n      0x00\n        /* \"#utility.yul\":9157:9162   */\n      dup3\n        /* \"#utility.yul\":9127:9166   */\n      tag_87\n      jump\t// in\n    tag_199:\n        /* \"#utility.yul\":9100:9101   */\n      0x01\n        /* \"#utility.yul\":9093:9098   */\n      dup2\n        /* \"#utility.yul\":9089:9102   */\n      add\n        /* \"#utility.yul\":9080:9102   */\n      swap1\n      pop\n        /* \"#utility.yul\":9056:9176   */\n      jump(tag_196)\n    tag_198:\n        /* \"#utility.yul\":8996:9182   */\n      pop\n      pop\n      jump\t// out\n        /* \"#utility.yul\":9188:9731   */\n    tag_89:\n        /* \"#utility.yul\":9289:9291   */\n      0x1f\n        /* \"#utility.yul\":9284:9287   */\n      dup3\n        /* \"#utility.yul\":9281:9292   */\n      gt\n        /* \"#utility.yul\":9278:9724   */\n      iszero\n      tag_201\n      jumpi\n        /* \"#utility.yul\":9323:9361   */\n      tag_202\n        /* \"#utility.yul\":9355:9360   */\n      dup2\n        /* \"#utility.yul\":9323:9361   */\n      tag_78\n      jump\t// in\n    tag_202:\n        /* \"#utility.yul\":9407:9436   */\n      tag_203\n        /* \"#utility.yul\":9425:9435   */\n      dup5\n        /* \"#utility.yul\":9407:9436   */\n      tag_79\n      jump\t// in\n    tag_203:\n        /* \"#utility.yul\":9397:9405   */\n      dup2\n        /* \"#utility.yul\":9393:9437   */\n      add\n        /* \"#utility.yul\":9590:9592   */\n      0x20\n        /* \"#utility.yul\":9578:9588   */\n      dup6\n        /* \"#utility.yul\":9575:9593   */\n      lt\n        /* \"#utility.yul\":9572:9621   */\n      iszero\n      tag_204\n      jumpi\n        /* \"#utility.yul\":9611:9619   */\n      dup2\n        /* \"#utility.yul\":9596:9619   */\n      swap1\n      pop\n        /* \"#utility.yul\":9572:9621   */\n    tag_204:\n        /* \"#utility.yul\":9634:9714   */\n      tag_205\n        /* \"#utility.yul\":9690:9712   */\n      tag_206\n        /* \"#utility.yul\":9708:9711   */\n      dup6\n        /* \"#utility.yul\":9690:9712   */\n      tag_79\n      jump\t// in\n    tag_206:\n        /* \"#utility.yul\":9680:9688   */\n      dup4\n        /* \"#utility.yul\":9676:9713   */\n      add\n        /* \"#utility.yul\":9663:9674   */\n      dup3\n        /* \"#utility.yul\":9634:9714   */\n      tag_88\n      jump\t// in\n    tag_205:\n        /* \"#utility.yul\":9293:9724   */\n      pop\n      pop\n        /* \"#utility.yul\":9278:9724   */\n    tag_201:\n        /* \"#utility.yul\":9188:9731   */\n      pop\n      pop\n      pop\n      jump\t// out\n        /* \"#utility.yul\":9737:9854   */\n    tag_90:\n        /* \"#utility.yul\":9791:9799   */\n      0x00\n        /* \"#utility.yul\":9841:9846   */\n      dup3\n        /* \"#utility.yul\":9835:9839   */\n      dup3\n        /* \"#utility.yul\":9831:9847   */\n      shr\n        /* \"#utility.yul\":9810:9847   */\n      swap1\n      pop\n        /* \"#utility.yul\":9737:9854   */\n      swap3\n      swap2\n      pop\n      pop\n      jump\t// out\n        /* \"#utility.yul\":9860:10029   */\n    tag_91:\n        /* \"#utility.yul\":9904:9910   */\n      0x00\n        /* \"#utility.yul\":9937:9988   */\n      tag_209\n        /* \"#utility.yul\":9985:9986   */\n      0x00\n        /* \"#utility.yul\":9981:9987   */\n      not\n        /* \"#utility.yul\":9973:9978   */\n      dup5\n        /* \"#utility.yul\":9970:9971   */\n      0x08\n        /* \"#utility.yul\":9966:9979   */\n      mul\n        /* \"#utility.yul\":9937:9988   */\n      tag_90\n      jump\t// in\n    tag_209:\n        /* \"#utility.yul\":9933:9989   */\n      not\n        /* \"#utility.yul\":10018:10022   */\n      dup1\n        /* \"#utility.yul\":10012:10016   */\n      dup4\n        /* \"#utility.yul\":10008:10023   */\n      and\n        /* \"#utility.yul\":9998:10023   */\n      swap2\n      pop\n        /* \"#utility.yul\":9911:10029   */\n      pop\n        /* \"#utility.yul\":9860:10029   */\n      swap3\n      swap2\n      pop\n      pop\n      jump\t// out\n        /* \"#utility.yul\":10034:10329   */\n    tag_92:\n        /* \"#utility.yul\":10110:10114   */\n      0x00\n        /* \"#utility.yul\":10256:10285   */\n      tag_211\n        /* \"#utility.yul\":10281:10284   */\n      dup4\n        /* \"#utility.yul\":10275:10279   */\n      dup4\n        /* \"#utility.yul\":10256:10285   */\n      tag_91\n      jump\t// in\n    tag_211:\n        /* \"#utility.yul\":10248:10285   */\n      swap2\n      pop\n        /* \"#utility.yul\":10318:10321   */\n      dup3\n        /* \"#utility.yul\":10315:10316   */\n      0x02\n        /* \"#utility.yul\":10311:10322   */\n      mul\n        /* \"#utility.yul\":10305:10309   */\n      dup3\n        /* \"#utility.yul\":10302:10323   */\n      or\n        /* \"#utility.yul\":10294:10323   */\n      swap1\n      pop\n        /* \"#utility.yul\":10034:10329   */\n      swap3\n      swap2\n      pop\n      pop\n      jump\t// out\n        /* \"#utility.yul\":10334:11729   */\n    tag_32:\n        /* \"#utility.yul\":10451:10488   */\n      tag_213\n        /* \"#utility.yul\":10484:10487   */\n      dup3\n        /* \"#utility.yul\":10451:10488   */\n      tag_62\n      jump\t// in\n    tag_213:\n        /* \"#utility.yul\":10553:10571   */\n      0xffffffffffffffff\n        /* \"#utility.yul\":10545:10551   */\n      dup2\n        /* \"#utility.yul\":10542:10572   */\n      gt\n        /* \"#utility.yul\":10539:10595   */\n      iszero\n      tag_214\n      jumpi\n        /* \"#utility.yul\":10575:10593   */\n      tag_215\n      tag_70\n      jump\t// in\n    tag_215:\n        /* \"#utility.yul\":10539:10595   */\n    tag_214:\n        /* \"#utility.yul\":10619:10657   */\n      tag_216\n        /* \"#utility.yul\":10651:10655   */\n      dup3\n        /* \"#utility.yul\":10645:10656   */\n      sload\n        /* \"#utility.yul\":10619:10657   */\n      tag_42\n      jump\t// in\n    tag_216:\n        /* \"#utility.yul\":10704:10771   */\n      tag_217\n        /* \"#utility.yul\":10764:10770   */\n      dup3\n        /* \"#utility.yul\":10756:10762   */\n      dup3\n        /* \"#utility.yul\":10750:10754   */\n      dup6\n        /* \"#utility.yul\":10704:10771   */\n      tag_89\n      jump\t// in\n    tag_217:\n        /* \"#utility.yul\":10798:10799   */\n      0x00\n        /* \"#utility.yul\":10822:10826   */\n      0x20\n        /* \"#utility.yul\":10809:10826   */\n      swap1\n      pop\n        /* \"#utility.yul\":10854:10856   */\n      0x1f\n        /* \"#utility.yul\":10846:10852   */\n      dup4\n        /* \"#utility.yul\":10843:10857   */\n      gt\n        /* \"#utility.yul\":10871:10872   */\n      0x01\n        /* \"#utility.yul\":10866:11484   */\n      dup2\n      eq\n      tag_219\n      jumpi\n        /* \"#utility.yul\":11528:11529   */\n      0x00\n        /* \"#utility.yul\":11545:11551   */\n      dup5\n        /* \"#utility.yul\":11542:11619   */\n      iszero\n      tag_220\n      jumpi\n        /* \"#utility.yul\":11594:11603   */\n      dup3\n        /* \"#utility.yul\":11589:11592   */\n      dup8\n        /* \"#utility.yul\":11585:11604   */\n      add\n        /* \"#utility.yul\":11579:11605   */\n      mload\n        /* \"#utility.yul\":11570:11605   */\n      swap1\n      pop\n        /* \"#utility.yul\":11542:11619   */\n    tag_220:\n        /* \"#utility.yul\":11645:11712   */\n      tag_221\n        /* \"#utility.yul\":11705:11711   */\n      dup6\n        /* \"#utility.yul\":11698:11703   */\n      dup3\n        /* \"#utility.yul\":11645:11712   */\n      tag_92\n      jump\t// in\n    tag_221:\n        /* \"#utility.yul\":11639:11643   */\n      dup7\n        /* \"#utility.yul\":11632:11713   */\n      sstore\n        /* \"#utility.yul\":11501:11723   */\n      pop\n        /* \"#utility.yul\":10836:11723   */\n      jump(tag_218)\n        /* \"#utility.yul\":10866:11484   */\n    tag_219:\n        /* \"#utility.yul\":10918:10922   */\n      0x1f\n        /* \"#utility.yul\":10914:10923   */\n      not\n        /* \"#utility.yul\":10906:10912   */\n      dup5\n        /* \"#utility.yul\":10902:10924   */\n      and\n        /* \"#utility.yul\":10952:10989   */\n      tag_222\n        /* \"#utility.yul\":10984:10988   */\n      dup7\n        /* \"#utility.yul\":10952:10989   */\n      tag_78\n      jump\t// in\n    tag_222:\n        /* \"#utility.yul\":11011:11012   */\n      0x00\n        /* \"#utility.yul\":11025:11233   */\n    tag_223:\n        /* \"#utility.yul\":11039:11046   */\n      dup3\n        /* \"#utility.yul\":11036:11037   */\n      dup2\n        /* \"#utility.yul\":11033:11047   */\n      lt\n        /* \"#utility.yul\":11025:11233   */\n      iszero\n      tag_225\n      jumpi\n        /* \"#utility.yul\":11118:11127   */\n      dup5\n        /* \"#utility.yul\":11113:11116   */\n      dup10\n        /* \"#utility.yul\":11109:11128   */\n      add\n        /* \"#utility.yul\":11103:11129   */\n      mload\n        /* \"#utility.yul\":11095:11101   */\n      dup3\n        /* \"#utility.yul\":11088:11130   */\n      sstore\n        /* \"#utility.yul\":11169:11170   */\n      0x01\n        /* \"#utility.yul\":11161:11167   */\n      dup3\n        /* \"#utility.yul\":11157:11171   */\n      add\n        /* \"#utility.yul\":11147:11171   */\n      swap2\n      pop\n        /* \"#utility.yul\":11216:11218   */\n      0x20\n        /* \"#utility.yul\":11205:11214   */\n      dup6\n        /* \"#utility.yul\":11201:11219   */\n      add\n        /* \"#utility.yul\":11188:11219   */\n      swap5\n      pop\n        /* \"#utility.yul\":11062:11066   */\n      0x20\n        /* \"#utility.yul\":11059:11060   */\n      dup2\n        /* \"#utility.yul\":11055:11067   */\n      add\n        /* \"#utility.yul\":11050:11067   */\n      swap1\n      pop\n        /* \"#utility.yul\":11025:11233   */\n      jump(tag_223)\n    tag_225:\n        /* \"#utility.yul\":11261:11267   */\n      dup7\n        /* \"#utility.yul\":11252:11259   */\n      dup4\n        /* \"#utility.yul\":11249:11268   */\n      lt\n        /* \"#utility.yul\":11246:11425   */\n      iszero\n      tag_226\n      jumpi\n        /* \"#utility.yul\":11319:11328   */\n      dup5\n        /* \"#utility.yul\":11314:11317   */\n      dup10\n        /* \"#utility.yul\":11310:11329   */\n      add\n        /* \"#utility.yul\":11304:11330   */\n      mload\n        /* \"#utility.yul\":11362:11410   */\n      tag_227\n        /* \"#utility.yul\":11404:11408   */\n      0x1f\n        /* \"#utility.yul\":11396:11402   */\n      dup10\n        /* \"#utility.yul\":11392:11409   */\n      and\n        /* \"#utility.yul\":11381:11390   */\n      dup3\n        /* \"#utility.yul\":11362:11410   */\n      tag_91\n      jump\t// in\n    tag_227:\n        /* \"#utility.yul\":11354:11360   */\n      dup4\n        /* \"#utility.yul\":11347:11411   */\n      sstore\n        /* \"#utility.yul\":11269:11425   */\n      pop\n        /* \"#utility.yul\":11246:11425   */\n    tag_226:\n        /* \"#utility.yul\":11471:11472   */\n      0x01\n        /* \"#utility.yul\":11467:11468   */\n      0x02\n        /* \"#utility.yul\":11459:11465   */\n      dup9\n        /* \"#utility.yul\":11455:11469   */\n      mul\n        /* \"#utility.yul\":11451:11473   */\n      add\n        /* \"#utility.yul\":11445:11449   */\n      dup9\n        /* \"#utility.yul\":11438:11474   */\n      sstore\n        /* \"#utility.yul\":10873:11484   */\n      pop\n      pop\n      pop\n        /* \"#utility.yul\":10836:11723   */\n    tag_218:\n      pop\n        /* \"#utility.yul\":10426:11729   */\n      pop\n      pop\n      pop\n        /* \"#utility.yul\":10334:11729   */\n      pop\n      pop\n      jump\t// out\n\n    auxdata: 0xa2646970667358221220c131d52cecb7b52a546b87e973dd2669941c4d193325cd3ea973952d54062d5164736f6c634300081a0033\n}\n",
				"bytecode": {
					"linkReferences": {},
					"object": "6080604052348015600e575f80fd5b50610aeb8061001c5f395ff3fe608060405234801561000f575f80fd5b506004361061004a575f3560e01c8063455f50241461004e578063b6a46b3b1461006a578063bc8bc2b414610086578063cd111614146100b7575b5f80fd5b610068600480360381019061006391906104ae565b6100d3565b005b610084600480360381019061007f919061053a565b610125565b005b6100a0600480360381019061009b91906104ae565b610357565b6040516100ae92919061060f565b60405180910390f35b6100d160048036038101906100cc9190610765565b610417565b005b5f8082815481106100e7576100e66107bf565b5b905f5260205f2090600202019050806001015f9054906101000a900460ff1615816001015f6101000a81548160ff0219169083151502179055505050565b5f604051806040016040528084848080601f0160208091040260200160405190810160405280939291908181526020018383808284375f81840152601f19601f8201169050808301925050505050505081526020015f1515815250908060018154018082558091505060019003905f5260205f2090600202015f909190919091505f820151815f0190816101b991906109e6565b506020820151816001015f6101000a81548160ff02191690831515021790555050505f604051806040016040528084848080601f0160208091040260200160405190810160405280939291908181526020018383808284375f81840152601f19601f8201169050808301925050505050505081526020015f1515815250908060018154018082558091505060019003905f5260205f2090600202015f909190919091505f820151815f01908161026f91906109e6565b506020820151816001015f6101000a81548160ff021916908315150217905550505061029961044f565b82828080601f0160208091040260200160405190810160405280939291908181526020018383808284375f81840152601f19601f82011690508083019250505050505050815f018190525060018160200190151590811515815250505f81908060018154018082558091505060019003905f5260205f2090600202015f909190919091505f820151815f01908161033091906109e6565b506020820151816001015f6101000a81548160ff0219169083151502179055505050505050565b5f8181548110610365575f80fd5b905f5260205f2090600202015f91509050805f01805461038490610819565b80601f01602080910402602001604051908101604052809291908181526020018280546103b090610819565b80156103fb5780601f106103d2576101008083540402835291602001916103fb565b820191905f5260205f20905b8154815290600101906020018083116103de57829003601f168201915b505050505090806001015f9054906101000a900460ff16905082565b5f80838154811061042b5761042a6107bf565b5b905f5260205f209060020201905081815f01908161044991906109e6565b50505050565b6040518060400160405280606081526020015f151581525090565b5f604051905090565b5f80fd5b5f80fd5b5f819050919050565b61048d8161047b565b8114610497575f80fd5b50565b5f813590506104a881610484565b92915050565b5f602082840312156104c3576104c2610473565b5b5f6104d08482850161049a565b91505092915050565b5f80fd5b5f80fd5b5f80fd5b5f8083601f8401126104fa576104f96104d9565b5b8235905067ffffffffffffffff811115610517576105166104dd565b5b602083019150836001820283011115610533576105326104e1565b5b9250929050565b5f80602083850312156105505761054f610473565b5b5f83013567ffffffffffffffff81111561056d5761056c610477565b5b610579858286016104e5565b92509250509250929050565b5f81519050919050565b5f82825260208201905092915050565b8281835e5f83830152505050565b5f601f19601f8301169050919050565b5f6105c782610585565b6105d1818561058f565b93506105e181856020860161059f565b6105ea816105ad565b840191505092915050565b5f8115159050919050565b610609816105f5565b82525050565b5f6040820190508181035f83015261062781856105bd565b90506106366020830184610600565b9392505050565b5f80fd5b7f4e487b71000000000000000000000000000000000000000000000000000000005f52604160045260245ffd5b610677826105ad565b810181811067ffffffffffffffff8211171561069657610695610641565b5b80604052505050565b5f6106a861046a565b90506106b4828261066e565b919050565b5f67ffffffffffffffff8211156106d3576106d2610641565b5b6106dc826105ad565b9050602081019050919050565b828183375f83830152505050565b5f610709610704846106b9565b61069f565b9050828152602081018484840111156107255761072461063d565b5b6107308482856106e9565b509392505050565b5f82601f83011261074c5761074b6104d9565b5b813561075c8482602086016106f7565b91505092915050565b5f806040838503121561077b5761077a610473565b5b5f6107888582860161049a565b925050602083013567ffffffffffffffff8111156107a9576107a8610477565b5b6107b585828601610738565b9150509250929050565b7f4e487b71000000000000000000000000000000000000000000000000000000005f52603260045260245ffd5b7f4e487b71000000000000000000000000000000000000000000000000000000005f52602260045260245ffd5b5f600282049050600182168061083057607f821691505b602082108103610843576108426107ec565b5b50919050565b5f819050815f5260205f209050919050565b5f6020601f8301049050919050565b5f82821b905092915050565b5f600883026108a57fffffffffffffffffffffffffffffffffffffffffffffffffffffffffffffffff8261086a565b6108af868361086a565b95508019841693508086168417925050509392505050565b5f819050919050565b5f6108ea6108e56108e08461047b565b6108c7565b61047b565b9050919050565b5f819050919050565b610903836108d0565b61091761090f826108f1565b848454610876565b825550505050565b5f90565b61092b61091f565b6109368184846108fa565b505050565b5b818110156109595761094e5f82610923565b60018101905061093c565b5050565b601f82111561099e5761096f81610849565b6109788461085b565b81016020851015610987578190505b61099b6109938561085b565b83018261093b565b50505b505050565b5f82821c905092915050565b5f6109be5f19846008026109a3565b1980831691505092915050565b5f6109d683836109af565b9150826002028217905092915050565b6109ef82610585565b67ffffffffffffffff811115610a0857610a07610641565b5b610a128254610819565b610a1d82828561095d565b5f60209050601f831160018114610a4e575f8415610a3c578287015190505b610a4685826109cb565b865550610aad565b601f198416610a5c86610849565b5f5b82811015610a8357848901518255600182019150602085019450602081019050610a5e565b86831015610aa05784890151610a9c601f8916826109af565b8355505b6001600288020188555050505b50505050505056fea2646970667358221220c131d52cecb7b52a546b87e973dd2669941c4d193325cd3ea973952d54062d5164736f6c634300081a0033",
					"opcodes": "PUSH1 0x80 PUSH1 0x40 MSTORE CALLVALUE DUP1 ISZERO PUSH1 0xE JUMPI PUSH0 DUP1 REVERT JUMPDEST POP PUSH2 0xAEB DUP1 PUSH2 0x1C PUSH0 CODECOPY PUSH0 RETURN INVALID PUSH1 0x80 PUSH1 0x40 MSTORE CALLVALUE DUP1 ISZERO PUSH2 0xF JUMPI PUSH0 DUP1 REVERT JUMPDEST POP PUSH1 0x4 CALLDATASIZE LT PUSH2 0x4A JUMPI PUSH0 CALLDATALOAD PUSH1 0xE0 SHR DUP1 PUSH4 0x455F5024 EQ PUSH2 0x4E JUMPI DUP1 PUSH4 0xB6A46B3B EQ PUSH2 0x6A JUMPI DUP1 PUSH4 0xBC8BC2B4 EQ PUSH2 0x86 JUMPI DUP1 PUSH4 0xCD111614 EQ PUSH2 0xB7 JUMPI JUMPDEST PUSH0 DUP1 REVERT JUMPDEST PUSH2 0x68 PUSH1 0x4 DUP1 CALLDATASIZE SUB DUP2 ADD SWAP1 PUSH2 0x63 SWAP2 SWAP1 PUSH2 0x4AE JUMP JUMPDEST PUSH2 0xD3 JUMP JUMPDEST STOP JUMPDEST PUSH2 0x84 PUSH1 0x4 DUP1 CALLDATASIZE SUB DUP2 ADD SWAP1 PUSH2 0x7F SWAP2 SWAP1 PUSH2 0x53A JUMP JUMPDEST PUSH2 0x125 JUMP JUMPDEST STOP JUMPDEST PUSH2 0xA0 PUSH1 0x4 DUP1 CALLDATASIZE SUB DUP2 ADD SWAP1 PUSH2 0x9B SWAP2 SWAP1 PUSH2 0x4AE JUMP JUMPDEST PUSH2 0x357 JUMP JUMPDEST PUSH1 0x40 MLOAD PUSH2 0xAE SWAP3 SWAP2 SWAP1 PUSH2 0x60F JUMP JUMPDEST PUSH1 0x40 MLOAD DUP1 SWAP2 SUB SWAP1 RETURN JUMPDEST PUSH2 0xD1 PUSH1 0x4 DUP1 CALLDATASIZE SUB DUP2 ADD SWAP1 PUSH2 0xCC SWAP2 SWAP1 PUSH2 0x765 JUMP JUMPDEST PUSH2 0x417 JUMP JUMPDEST STOP JUMPDEST PUSH0 DUP1 DUP3 DUP2 SLOAD DUP2 LT PUSH2 0xE7 JUMPI PUSH2 0xE6 PUSH2 0x7BF JUMP JUMPDEST JUMPDEST SWAP1 PUSH0 MSTORE PUSH1 0x20 PUSH0 KECCAK256 SWAP1 PUSH1 0x2 MUL ADD SWAP1 POP DUP1 PUSH1 0x1 ADD PUSH0 SWAP1 SLOAD SWAP1 PUSH2 0x100 EXP SWAP1 DIV PUSH1 0xFF AND ISZERO DUP2 PUSH1 0x1 ADD PUSH0 PUSH2 0x100 EXP DUP2 SLOAD DUP2 PUSH1 0xFF MUL NOT AND SWAP1 DUP4 ISZERO ISZERO MUL OR SWAP1 SSTORE POP POP POP JUMP JUMPDEST PUSH0 PUSH1 0x40 MLOAD DUP1 PUSH1 0x40 ADD PUSH1 0x40 MSTORE DUP1 DUP5 DUP5 DUP1 DUP1 PUSH1 0x1F ADD PUSH1 0x20 DUP1 SWAP2 DIV MUL PUSH1 0x20 ADD PUSH1 0x40 MLOAD SWAP1 DUP2 ADD PUSH1 0x40 MSTORE DUP1 SWAP4 SWAP3 SWAP2 SWAP1 DUP2 DUP2 MSTORE PUSH1 0x20 ADD DUP4 DUP4 DUP1 DUP3 DUP5 CALLDATACOPY PUSH0 DUP2 DUP5 ADD MSTORE PUSH1 0x1F NOT PUSH1 0x1F DUP3 ADD AND SWAP1 POP DUP1 DUP4 ADD SWAP3 POP POP POP POP POP POP POP DUP2 MSTORE PUSH1 0x20 ADD PUSH0 ISZERO ISZERO DUP2 MSTORE POP SWAP1 DUP1 PUSH1 0x1 DUP2 SLOAD ADD DUP1 DUP3 SSTORE DUP1 SWAP2 POP POP PUSH1 0x1 SWAP1 SUB SWAP1 PUSH0 MSTORE PUSH1 0x20 PUSH0 KECCAK256 SWAP1 PUSH1 0x2 MUL ADD PUSH0 SWAP1 SWAP2 SWAP1 SWAP2 SWAP1 SWAP2 POP PUSH0 DUP3 ADD MLOAD DUP2 PUSH0 ADD SWAP1 DUP2 PUSH2 0x1B9 SWAP2 SWAP1 PUSH2 0x9E6 JUMP JUMPDEST POP PUSH1 0x20 DUP3 ADD MLOAD DUP2 PUSH1 0x1 ADD PUSH0 PUSH2 0x100 EXP DUP2 SLOAD DUP2 PUSH1 0xFF MUL NOT AND SWAP1 DUP4 ISZERO ISZERO MUL OR SWAP1 SSTORE POP POP POP PUSH0 PUSH1 0x40 MLOAD DUP1 PUSH1 0x40 ADD PUSH1 0x40 MSTORE DUP1 DUP5 DUP5 DUP1 DUP1 PUSH1 0x1F ADD PUSH1 0x20 DUP1 SWAP2 DIV MUL PUSH1 0x20 ADD PUSH1 0x40 MLOAD SWAP1 DUP2 ADD PUSH1 0x40 MSTORE DUP1 SWAP4 SWAP3 SWAP2 SWAP1 DUP2 DUP2 MSTORE PUSH1 0x20 ADD DUP4 DUP4 DUP1 DUP3 DUP5 CALLDATACOPY PUSH0 DUP2 DUP5 ADD MSTORE PUSH1 0x1F NOT PUSH1 0x1F DUP3 ADD AND SWAP1 POP DUP1 DUP4 ADD SWAP3 POP POP POP POP POP POP POP DUP2 MSTORE PUSH1 0x20 ADD PUSH0 ISZERO ISZERO DUP2 MSTORE POP SWAP1 DUP1 PUSH1 0x1 DUP2 SLOAD ADD DUP1 DUP3 SSTORE DUP1 SWAP2 POP POP PUSH1 0x1 SWAP1 SUB SWAP1 PUSH0 MSTORE PUSH1 0x20 PUSH0 KECCAK256 SWAP1 PUSH1 0x2 MUL ADD PUSH0 SWAP1 SWAP2 SWAP1 SWAP2 SWAP1 SWAP2 POP PUSH0 DUP3 ADD MLOAD DUP2 PUSH0 ADD SWAP1 DUP2 PUSH2 0x26F SWAP2 SWAP1 PUSH2 0x9E6 JUMP JUMPDEST POP PUSH1 0x20 DUP3 ADD MLOAD DUP2 PUSH1 0x1 ADD PUSH0 PUSH2 0x100 EXP DUP2 SLOAD DUP2 PUSH1 0xFF MUL NOT AND SWAP1 DUP4 ISZERO ISZERO MUL OR SWAP1 SSTORE POP POP POP PUSH2 0x299 PUSH2 0x44F JUMP JUMPDEST DUP3 DUP3 DUP1 DUP1 PUSH1 0x1F ADD PUSH1 0x20 DUP1 SWAP2 DIV MUL PUSH1 0x20 ADD PUSH1 0x40 MLOAD SWAP1 DUP2 ADD PUSH1 0x40 MSTORE DUP1 SWAP4 SWAP3 SWAP2 SWAP1 DUP2 DUP2 MSTORE PUSH1 0x20 ADD DUP4 DUP4 DUP1 DUP3 DUP5 CALLDATACOPY PUSH0 DUP2 DUP5 ADD MSTORE PUSH1 0x1F NOT PUSH1 0x1F DUP3 ADD AND SWAP1 POP DUP1 DUP4 ADD SWAP3 POP POP POP POP POP POP POP DUP2 PUSH0 ADD DUP2 SWAP1 MSTORE POP PUSH1 0x1 DUP2 PUSH1 0x20 ADD SWAP1 ISZERO ISZERO SWAP1 DUP2 ISZERO ISZERO DUP2 MSTORE POP POP PUSH0 DUP2 SWAP1 DUP1 PUSH1 0x1 DUP2 SLOAD ADD DUP1 DUP3 SSTORE DUP1 SWAP2 POP POP PUSH1 0x1 SWAP1 SUB SWAP1 PUSH0 MSTORE PUSH1 0x20 PUSH0 KECCAK256 SWAP1 PUSH1 0x2 MUL ADD PUSH0 SWAP1 SWAP2 SWAP1 SWAP2 SWAP1 SWAP2 POP PUSH0 DUP3 ADD MLOAD DUP2 PUSH0 ADD SWAP1 DUP2 PUSH2 0x330 SWAP2 SWAP1 PUSH2 0x9E6 JUMP JUMPDEST POP PUSH1 0x20 DUP3 ADD MLOAD DUP2 PUSH1 0x1 ADD PUSH0 PUSH2 0x100 EXP DUP2 SLOAD DUP2 PUSH1 0xFF MUL NOT AND SWAP1 DUP4 ISZERO ISZERO MUL OR SWAP1 SSTORE POP POP POP POP POP POP JUMP JUMPDEST PUSH0 DUP2 DUP2 SLOAD DUP2 LT PUSH2 0x365 JUMPI PUSH0 DUP1 REVERT JUMPDEST SWAP1 PUSH0 MSTORE PUSH1 0x20 PUSH0 KECCAK256 SWAP1 PUSH1 0x2 MUL ADD PUSH0 SWAP2 POP SWAP1 POP DUP1 PUSH0 ADD DUP1 SLOAD PUSH2 0x384 SWAP1 PUSH2 0x819 JUMP JUMPDEST DUP1 PUSH1 0x1F ADD PUSH1 0x20 DUP1 SWAP2 DIV MUL PUSH1 0x20 ADD PUSH1 0x40 MLOAD SWAP1 DUP2 ADD PUSH1 0x40 MSTORE DUP1 SWAP3 SWAP2 SWAP1 DUP2 DUP2 MSTORE PUSH1 0x20 ADD DUP3 DUP1 SLOAD PUSH2 0x3B0 SWAP1 PUSH2 0x819 JUMP JUMPDEST DUP1 ISZERO PUSH2 0x3FB JUMPI DUP1 PUSH1 0x1F LT PUSH2 0x3D2 JUMPI PUSH2 0x100 DUP1 DUP4 SLOAD DIV MUL DUP4 MSTORE SWAP2 PUSH1 0x20 ADD SWAP2 PUSH2 0x3FB JUMP JUMPDEST DUP3 ADD SWAP2 SWAP1 PUSH0 MSTORE PUSH1 0x20 PUSH0 KECCAK256 SWAP1 JUMPDEST DUP2 SLOAD DUP2 MSTORE SWAP1 PUSH1 0x1 ADD SWAP1 PUSH1 0x20 ADD DUP1 DUP4 GT PUSH2 0x3DE JUMPI DUP3 SWAP1 SUB PUSH1 0x1F AND DUP3 ADD SWAP2 JUMPDEST POP POP POP POP POP SWAP1 DUP1 PUSH1 0x1 ADD PUSH0 SWAP1 SLOAD SWAP1 PUSH2 0x100 EXP SWAP1 DIV PUSH1 0xFF AND SWAP1 POP DUP3 JUMP JUMPDEST PUSH0 DUP1 DUP4 DUP2 SLOAD DUP2 LT PUSH2 0x42B JUMPI PUSH2 0x42A PUSH2 0x7BF JUMP JUMPDEST JUMPDEST SWAP1 PUSH0 MSTORE PUSH1 0x20 PUSH0 KECCAK256 SWAP1 PUSH1 0x2 MUL ADD SWAP1 POP DUP2 DUP2 PUSH0 ADD SWAP1 DUP2 PUSH2 0x449 SWAP2 SWAP1 PUSH2 0x9E6 JUMP JUMPDEST POP POP POP POP JUMP JUMPDEST PUSH1 0x40 MLOAD DUP1 PUSH1 0x40 ADD PUSH1 0x40 MSTORE DUP1 PUSH1 0x60 DUP2 MSTORE PUSH1 0x20 ADD PUSH0 ISZERO ISZERO DUP2 MSTORE POP SWAP1 JUMP JUMPDEST PUSH0 PUSH1 0x40 MLOAD SWAP1 POP SWAP1 JUMP JUMPDEST PUSH0 DUP1 REVERT JUMPDEST PUSH0 DUP1 REVERT JUMPDEST PUSH0 DUP2 SWAP1 POP SWAP2 SWAP1 POP JUMP JUMPDEST PUSH2 0x48D DUP2 PUSH2 0x47B JUMP JUMPDEST DUP2 EQ PUSH2 0x497 JUMPI PUSH0 DUP1 REVERT JUMPDEST POP JUMP JUMPDEST PUSH0 DUP2 CALLDATALOAD SWAP1 POP PUSH2 0x4A8 DUP2 PUSH2 0x484 JUMP JUMPDEST SWAP3 SWAP2 POP POP JUMP JUMPDEST PUSH0 PUSH1 0x20 DUP3 DUP5 SUB SLT ISZERO PUSH2 0x4C3 JUMPI PUSH2 0x4C2 PUSH2 0x473 JUMP JUMPDEST JUMPDEST PUSH0 PUSH2 0x4D0 DUP5 DUP3 DUP6 ADD PUSH2 0x49A JUMP JUMPDEST SWAP2 POP POP SWAP3 SWAP2 POP POP JUMP JUMPDEST PUSH0 DUP1 REVERT JUMPDEST PUSH0 DUP1 REVERT JUMPDEST PUSH0 DUP1 REVERT JUMPDEST PUSH0 DUP1 DUP4 PUSH1 0x1F DUP5 ADD SLT PUSH2 0x4FA JUMPI PUSH2 0x4F9 PUSH2 0x4D9 JUMP JUMPDEST JUMPDEST DUP3 CALLDATALOAD SWAP1 POP PUSH8 0xFFFFFFFFFFFFFFFF DUP2 GT ISZERO PUSH2 0x517 JUMPI PUSH2 0x516 PUSH2 0x4DD JUMP JUMPDEST JUMPDEST PUSH1 0x20 DUP4 ADD SWAP2 POP DUP4 PUSH1 0x1 DUP3 MUL DUP4 ADD GT ISZERO PUSH2 0x533 JUMPI PUSH2 0x532 PUSH2 0x4E1 JUMP JUMPDEST JUMPDEST SWAP3 POP SWAP3 SWAP1 POP JUMP JUMPDEST PUSH0 DUP1 PUSH1 0x20 DUP4 DUP6 SUB SLT ISZERO PUSH2 0x550 JUMPI PUSH2 0x54F PUSH2 0x473 JUMP JUMPDEST JUMPDEST PUSH0 DUP4 ADD CALLDATALOAD PUSH8 0xFFFFFFFFFFFFFFFF DUP2 GT ISZERO PUSH2 0x56D JUMPI PUSH2 0x56C PUSH2 0x477 JUMP JUMPDEST JUMPDEST PUSH2 0x579 DUP6 DUP3 DUP7 ADD PUSH2 0x4E5 JUMP JUMPDEST SWAP3 POP SWAP3 POP POP SWAP3 POP SWAP3 SWAP1 POP JUMP JUMPDEST PUSH0 DUP2 MLOAD SWAP1 POP SWAP2 SWAP1 POP JUMP JUMPDEST PUSH0 DUP3 DUP3 MSTORE PUSH1 0x20 DUP3 ADD SWAP1 POP SWAP3 SWAP2 POP POP JUMP JUMPDEST DUP3 DUP2 DUP4 MCOPY PUSH0 DUP4 DUP4 ADD MSTORE POP POP POP JUMP JUMPDEST PUSH0 PUSH1 0x1F NOT PUSH1 0x1F DUP4 ADD AND SWAP1 POP SWAP2 SWAP1 POP JUMP JUMPDEST PUSH0 PUSH2 0x5C7 DUP3 PUSH2 0x585 JUMP JUMPDEST PUSH2 0x5D1 DUP2 DUP6 PUSH2 0x58F JUMP JUMPDEST SWAP4 POP PUSH2 0x5E1 DUP2 DUP6 PUSH1 0x20 DUP7 ADD PUSH2 0x59F JUMP JUMPDEST PUSH2 0x5EA DUP2 PUSH2 0x5AD JUMP JUMPDEST DUP5 ADD SWAP2 POP POP SWAP3 SWAP2 POP POP JUMP JUMPDEST PUSH0 DUP2 ISZERO ISZERO SWAP1 POP SWAP2 SWAP1 POP JUMP JUMPDEST PUSH2 0x609 DUP2 PUSH2 0x5F5 JUMP JUMPDEST DUP3 MSTORE POP POP JUMP JUMPDEST PUSH0 PUSH1 0x40 DUP3 ADD SWAP1 POP DUP2 DUP2 SUB PUSH0 DUP4 ADD MSTORE PUSH2 0x627 DUP2 DUP6 PUSH2 0x5BD JUMP JUMPDEST SWAP1 POP PUSH2 0x636 PUSH1 0x20 DUP4 ADD DUP5 PUSH2 0x600 JUMP JUMPDEST SWAP4 SWAP3 POP POP POP JUMP JUMPDEST PUSH0 DUP1 REVERT JUMPDEST PUSH32 0x4E487B7100000000000000000000000000000000000000000000000000000000 PUSH0 MSTORE PUSH1 0x41 PUSH1 0x4 MSTORE PUSH1 0x24 PUSH0 REVERT JUMPDEST PUSH2 0x677 DUP3 PUSH2 0x5AD JUMP JUMPDEST DUP2 ADD DUP2 DUP2 LT PUSH8 0xFFFFFFFFFFFFFFFF DUP3 GT OR ISZERO PUSH2 0x696 JUMPI PUSH2 0x695 PUSH2 0x641 JUMP JUMPDEST JUMPDEST DUP1 PUSH1 0x40 MSTORE POP POP POP JUMP JUMPDEST PUSH0 PUSH2 0x6A8 PUSH2 0x46A JUMP JUMPDEST SWAP1 POP PUSH2 0x6B4 DUP3 DUP3 PUSH2 0x66E JUMP JUMPDEST SWAP2 SWAP1 POP JUMP JUMPDEST PUSH0 PUSH8 0xFFFFFFFFFFFFFFFF DUP3 GT ISZERO PUSH2 0x6D3 JUMPI PUSH2 0x6D2 PUSH2 0x641 JUMP JUMPDEST JUMPDEST PUSH2 0x6DC DUP3 PUSH2 0x5AD JUMP JUMPDEST SWAP1 POP PUSH1 0x20 DUP2 ADD SWAP1 POP SWAP2 SWAP1 POP JUMP JUMPDEST DUP3 DUP2 DUP4 CALLDATACOPY PUSH0 DUP4 DUP4 ADD MSTORE POP POP POP JUMP JUMPDEST PUSH0 PUSH2 0x709 PUSH2 0x704 DUP5 PUSH2 0x6B9 JUMP JUMPDEST PUSH2 0x69F JUMP JUMPDEST SWAP1 POP DUP3 DUP2 MSTORE PUSH1 0x20 DUP2 ADD DUP5 DUP5 DUP5 ADD GT ISZERO PUSH2 0x725 JUMPI PUSH2 0x724 PUSH2 0x63D JUMP JUMPDEST JUMPDEST PUSH2 0x730 DUP5 DUP3 DUP6 PUSH2 0x6E9 JUMP JUMPDEST POP SWAP4 SWAP3 POP POP POP JUMP JUMPDEST PUSH0 DUP3 PUSH1 0x1F DUP4 ADD SLT PUSH2 0x74C JUMPI PUSH2 0x74B PUSH2 0x4D9 JUMP JUMPDEST JUMPDEST DUP2 CALLDATALOAD PUSH2 0x75C DUP5 DUP3 PUSH1 0x20 DUP7 ADD PUSH2 0x6F7 JUMP JUMPDEST SWAP2 POP POP SWAP3 SWAP2 POP POP JUMP JUMPDEST PUSH0 DUP1 PUSH1 0x40 DUP4 DUP6 SUB SLT ISZERO PUSH2 0x77B JUMPI PUSH2 0x77A PUSH2 0x473 JUMP JUMPDEST JUMPDEST PUSH0 PUSH2 0x788 DUP6 DUP3 DUP7 ADD PUSH2 0x49A JUMP JUMPDEST SWAP3 POP POP PUSH1 0x20 DUP4 ADD CALLDATALOAD PUSH8 0xFFFFFFFFFFFFFFFF DUP2 GT ISZERO PUSH2 0x7A9 JUMPI PUSH2 0x7A8 PUSH2 0x477 JUMP JUMPDEST JUMPDEST PUSH2 0x7B5 DUP6 DUP3 DUP7 ADD PUSH2 0x738 JUMP JUMPDEST SWAP2 POP POP SWAP3 POP SWAP3 SWAP1 POP JUMP JUMPDEST PUSH32 0x4E487B7100000000000000000000000000000000000000000000000000000000 PUSH0 MSTORE PUSH1 0x32 PUSH1 0x4 MSTORE PUSH1 0x24 PUSH0 REVERT JUMPDEST PUSH32 0x4E487B7100000000000000000000000000000000000000000000000000000000 PUSH0 MSTORE PUSH1 0x22 PUSH1 0x4 MSTORE PUSH1 0x24 PUSH0 REVERT JUMPDEST PUSH0 PUSH1 0x2 DUP3 DIV SWAP1 POP PUSH1 0x1 DUP3 AND DUP1 PUSH2 0x830 JUMPI PUSH1 0x7F DUP3 AND SWAP2 POP JUMPDEST PUSH1 0x20 DUP3 LT DUP2 SUB PUSH2 0x843 JUMPI PUSH2 0x842 PUSH2 0x7EC JUMP JUMPDEST JUMPDEST POP SWAP2 SWAP1 POP JUMP JUMPDEST PUSH0 DUP2 SWAP1 POP DUP2 PUSH0 MSTORE PUSH1 0x20 PUSH0 KECCAK256 SWAP1 POP SWAP2 SWAP1 POP JUMP JUMPDEST PUSH0 PUSH1 0x20 PUSH1 0x1F DUP4 ADD DIV SWAP1 POP SWAP2 SWAP1 POP JUMP JUMPDEST PUSH0 DUP3 DUP3 SHL SWAP1 POP SWAP3 SWAP2 POP POP JUMP JUMPDEST PUSH0 PUSH1 0x8 DUP4 MUL PUSH2 0x8A5 PUSH32 0xFFFFFFFFFFFFFFFFFFFFFFFFFFFFFFFFFFFFFFFFFFFFFFFFFFFFFFFFFFFFFFFF DUP3 PUSH2 0x86A JUMP JUMPDEST PUSH2 0x8AF DUP7 DUP4 PUSH2 0x86A JUMP JUMPDEST SWAP6 POP DUP1 NOT DUP5 AND SWAP4 POP DUP1 DUP7 AND DUP5 OR SWAP3 POP POP POP SWAP4 SWAP3 POP POP POP JUMP JUMPDEST PUSH0 DUP2 SWAP1 POP SWAP2 SWAP1 POP JUMP JUMPDEST PUSH0 PUSH2 0x8EA PUSH2 0x8E5 PUSH2 0x8E0 DUP5 PUSH2 0x47B JUMP JUMPDEST PUSH2 0x8C7 JUMP JUMPDEST PUSH2 0x47B JUMP JUMPDEST SWAP1 POP SWAP2 SWAP1 POP JUMP JUMPDEST PUSH0 DUP2 SWAP1 POP SWAP2 SWAP1 POP JUMP JUMPDEST PUSH2 0x903 DUP4 PUSH2 0x8D0 JUMP JUMPDEST PUSH2 0x917 PUSH2 0x90F DUP3 PUSH2 0x8F1 JUMP JUMPDEST DUP5 DUP5 SLOAD PUSH2 0x876 JUMP JUMPDEST DUP3 SSTORE POP POP POP POP JUMP JUMPDEST PUSH0 SWAP1 JUMP JUMPDEST PUSH2 0x92B PUSH2 0x91F JUMP JUMPDEST PUSH2 0x936 DUP2 DUP5 DUP5 PUSH2 0x8FA JUMP JUMPDEST POP POP POP JUMP JUMPDEST JUMPDEST DUP2 DUP2 LT ISZERO PUSH2 0x959 JUMPI PUSH2 0x94E PUSH0 DUP3 PUSH2 0x923 JUMP JUMPDEST PUSH1 0x1 DUP2 ADD SWAP1 POP PUSH2 0x93C JUMP JUMPDEST POP POP JUMP JUMPDEST PUSH1 0x1F DUP3 GT ISZERO PUSH2 0x99E JUMPI PUSH2 0x96F DUP2 PUSH2 0x849 JUMP JUMPDEST PUSH2 0x978 DUP5 PUSH2 0x85B JUMP JUMPDEST DUP2 ADD PUSH1 0x20 DUP6 LT ISZERO PUSH2 0x987 JUMPI DUP2 SWAP1 POP JUMPDEST PUSH2 0x99B PUSH2 0x993 DUP6 PUSH2 0x85B JUMP JUMPDEST DUP4 ADD DUP3 PUSH2 0x93B JUMP JUMPDEST POP POP JUMPDEST POP POP POP JUMP JUMPDEST PUSH0 DUP3 DUP3 SHR SWAP1 POP SWAP3 SWAP2 POP POP JUMP JUMPDEST PUSH0 PUSH2 0x9BE PUSH0 NOT DUP5 PUSH1 0x8 MUL PUSH2 0x9A3 JUMP JUMPDEST NOT DUP1 DUP4 AND SWAP2 POP POP SWAP3 SWAP2 POP POP JUMP JUMPDEST PUSH0 PUSH2 0x9D6 DUP4 DUP4 PUSH2 0x9AF JUMP JUMPDEST SWAP2 POP DUP3 PUSH1 0x2 MUL DUP3 OR SWAP1 POP SWAP3 SWAP2 POP POP JUMP JUMPDEST PUSH2 0x9EF DUP3 PUSH2 0x585 JUMP JUMPDEST PUSH8 0xFFFFFFFFFFFFFFFF DUP2 GT ISZERO PUSH2 0xA08 JUMPI PUSH2 0xA07 PUSH2 0x641 JUMP JUMPDEST JUMPDEST PUSH2 0xA12 DUP3 SLOAD PUSH2 0x819 JUMP JUMPDEST PUSH2 0xA1D DUP3 DUP3 DUP6 PUSH2 0x95D JUMP JUMPDEST PUSH0 PUSH1 0x20 SWAP1 POP PUSH1 0x1F DUP4 GT PUSH1 0x1 DUP2 EQ PUSH2 0xA4E JUMPI PUSH0 DUP5 ISZERO PUSH2 0xA3C JUMPI DUP3 DUP8 ADD MLOAD SWAP1 POP JUMPDEST PUSH2 0xA46 DUP6 DUP3 PUSH2 0x9CB JUMP JUMPDEST DUP7 SSTORE POP PUSH2 0xAAD JUMP JUMPDEST PUSH1 0x1F NOT DUP5 AND PUSH2 0xA5C DUP7 PUSH2 0x849 JUMP JUMPDEST PUSH0 JUMPDEST DUP3 DUP2 LT ISZERO PUSH2 0xA83 JUMPI DUP5 DUP10 ADD MLOAD DUP3 SSTORE PUSH1 0x1 DUP3 ADD SWAP2 POP PUSH1 0x20 DUP6 ADD SWAP5 POP PUSH1 0x20 DUP2 ADD SWAP1 POP PUSH2 0xA5E JUMP JUMPDEST DUP7 DUP4 LT ISZERO PUSH2 0xAA0 JUMPI DUP5 DUP10 ADD MLOAD PUSH2 0xA9C PUSH1 0x1F DUP10 AND DUP3 PUSH2 0x9AF JUMP JUMPDEST DUP4 SSTORE POP JUMPDEST PUSH1 0x1 PUSH1 0x2 DUP9 MUL ADD DUP9 SSTORE POP POP POP JUMPDEST POP POP POP POP POP POP JUMP INVALID LOG2 PUSH5 0x6970667358 0x22 SLT KECCAK256 0xC1 BALANCE 0xD5 0x2C 0xEC 0xB7 0xB5 0x2A SLOAD PUSH12 0x87E973DD2669941C4D193325 0xCD RETURNDATACOPY 0xA9 PUSH20 0x952D54062D5164736F6C634300081A0033000000 "
				},
				"gasEstimates": {
					"creation": {
						"codeDepositCost": "559000",
						"executionCost": "592",
						"totalCost": "559592"
					},
					"external": {
						"create(string)": "infinite",
						"todos(uint256)": "infinite",
						"toggleCompleted(uint256)": "28996",
						"updateText(uint256,string)": "infinite"
					}
				},
				"methodIdentifiers": {
					"create(string)": "b6a46b3b",
					"todos(uint256)": "bc8bc2b4",
					"toggleCompleted(uint256)": "455f5024",
					"updateText(uint256,string)": "cd111614"
				}
			},
			"storageLayout": {
				"storage": [
					{
						"astId": 10,
						"contract": "Contract/Struct.sol:Struct",
						"label": "todos",
						"offset": 0,
						"slot": "0",
						"type": "t_array(t_struct(Todo)6_storage)dyn_storage"
					}
				],
				"types": {
					"t_array(t_struct(Todo)6_storage)dyn_storage": {
						"base": "t_struct(Todo)6_storage",
						"encoding": "dynamic_array",
						"label": "struct Struct.Todo[]",
						"numberOfBytes": "32"
					},
					"t_bool": {
						"encoding": "inplace",
						"label": "bool",
						"numberOfBytes": "1"
					},
					"t_string_storage": {
						"encoding": "bytes",
						"label": "string",
						"numberOfBytes": "32"
					},
					"t_struct(Todo)6_storage": {
						"encoding": "inplace",
						"label": "struct Struct.Todo",
						"members": [
							{
								"astId": 3,
								"contract": "Contract/Struct.sol:Struct",
								"label": "text",
								"offset": 0,
								"slot": "0",
								"type": "t_string_storage"
							},
							{
								"astId": 5,
								"contract": "Contract/Struct.sol:Struct",
								"label": "completed",
								"offset": 0,
								"slot": "1",
								"type": "t_bool"
							}
						],
						"numberOfBytes": "64"
					}
				}
			},
			"userdoc": {
				"kind": "user",
				"methods": {},
				"version": 1
			}
		}
	}
}