{
	"Contract/Transitstorage.sol": {
		"TestStorage": {
			"abi": [
				{
					"inputs": [],
					"name": "test",
					"outputs": [],
					"stateMutability": "nonpayable",
					"type": "function"
				},
				{
					"inputs": [],
					"name": "val",
					"outputs": [
						{
							"internalType": "uint256",
							"name": "",
							"type": "uint256"
						}
					],
					"stateMutability": "view",
					"type": "function"
				}
			],
			"devdoc": {
				"kind": "dev",
				"methods": {},
				"version": 1
			},
			"evm": {
				"assembly": "    /* \"Contract/Transitstorage.sol\":269:429  contract TestStorage {... */\n  mstore(0x40, 0x80)\n  callvalue\n  dup1\n  iszero\n  tag_1\n  jumpi\n  0x00\n  dup1\n  revert\ntag_1:\n  pop\n  dataSize(sub_0)\n  dup1\n  dataOffset(sub_0)\n  0x00\n  codecopy\n  0x00\n  return\nstop\n\nsub_0: assembly {\n        /* \"Contract/Transitstorage.sol\":269:429  contract TestStorage {... */\n      mstore(0x40, 0x80)\n      callvalue\n      dup1\n      iszero\n      tag_1\n      jumpi\n      0x00\n      dup1\n      revert\n    tag_1:\n      pop\n      jumpi(tag_2, lt(calldatasize, 0x04))\n      shr(0xe0, calldataload(0x00))\n      dup1\n      0x3c6bb436\n      eq\n      tag_3\n      jumpi\n      dup1\n      0xf8a8fd6d\n      eq\n      tag_4\n      jumpi\n    tag_2:\n      0x00\n      dup1\n      revert\n        /* \"Contract/Transitstorage.sol\":296:314  uint256 public val */\n    tag_3:\n      tag_5\n      tag_6\n      jump\t// in\n    tag_5:\n      mload(0x40)\n      tag_7\n      swap2\n      swap1\n      tag_8\n      jump\t// in\n    tag_7:\n      mload(0x40)\n      dup1\n      swap2\n      sub\n      swap1\n      return\n        /* \"Contract/Transitstorage.sol\":321:427  function test() public {... */\n    tag_4:\n      tag_9\n      tag_10\n      jump\t// in\n    tag_9:\n      stop\n        /* \"Contract/Transitstorage.sol\":296:314  uint256 public val */\n    tag_6:\n      sload(0x00)\n      dup2\n      jump\t// out\n        /* \"Contract/Transitstorage.sol\":321:427  function test() public {... */\n    tag_10:\n        /* \"Contract/Transitstorage.sol\":360:363  123 */\n      0x7b\n        /* \"Contract/Transitstorage.sol\":354:357  val */\n      0x00\n        /* \"Contract/Transitstorage.sol\":354:363  val = 123 */\n      dup2\n      swap1\n      sstore\n      pop\n        /* \"Contract/Transitstorage.sol\":373:387  bytes memory b */\n      0x00\n        /* \"Contract/Transitstorage.sol\":373:392  bytes memory b = \"\" */\n      mload(0x40)\n      dup1\n      0x20\n      add\n      0x40\n      mstore\n      dup1\n      0x00\n      dup2\n      mstore\n      pop\n      swap1\n      pop\n        /* \"Contract/Transitstorage.sol\":402:412  msg.sender */\n      caller\n        /* \"Contract/Transitstorage.sol\":402:417  msg.sender.call */\n      0xffffffffffffffffffffffffffffffffffffffff\n      and\n        /* \"Contract/Transitstorage.sol\":418:419  b */\n      dup2\n        /* \"Contract/Transitstorage.sol\":402:420  msg.sender.call(b) */\n      mload(0x40)\n      tag_12\n      swap2\n      swap1\n      tag_13\n      jump\t// in\n    tag_12:\n      0x00\n      mload(0x40)\n      dup1\n      dup4\n      sub\n      dup2\n      0x00\n      dup7\n      gas\n      call\n      swap2\n      pop\n      pop\n      returndatasize\n      dup1\n      0x00\n      dup2\n      eq\n      tag_16\n      jumpi\n      mload(0x40)\n      swap2\n      pop\n      and(add(returndatasize, 0x3f), not(0x1f))\n      dup3\n      add\n      0x40\n      mstore\n      returndatasize\n      dup3\n      mstore\n      returndatasize\n      0x00\n      0x20\n      dup5\n      add\n      returndatacopy\n      jump(tag_15)\n    tag_16:\n      0x60\n      swap2\n      pop\n    tag_15:\n      pop\n      pop\n      pop\n        /* \"Contract/Transitstorage.sol\":344:427  {... */\n      pop\n        /* \"Contract/Transitstorage.sol\":321:427  function test() public {... */\n      jump\t// out\n        /* \"#utility.yul\":7:84   */\n    tag_17:\n        /* \"#utility.yul\":44:51   */\n      0x00\n        /* \"#utility.yul\":73:78   */\n      dup2\n        /* \"#utility.yul\":62:78   */\n      swap1\n      pop\n        /* \"#utility.yul\":7:84   */\n      swap2\n      swap1\n      pop\n      jump\t// out\n        /* \"#utility.yul\":90:208   */\n    tag_18:\n        /* \"#utility.yul\":177:201   */\n      tag_26\n        /* \"#utility.yul\":195:200   */\n      dup2\n        /* \"#utility.yul\":177:201   */\n      tag_17\n      jump\t// in\n    tag_26:\n        /* \"#utility.yul\":172:175   */\n      dup3\n        /* \"#utility.yul\":165:202   */\n      mstore\n        /* \"#utility.yul\":90:208   */\n      pop\n      pop\n      jump\t// out\n        /* \"#utility.yul\":214:436   */\n    tag_8:\n        /* \"#utility.yul\":307:311   */\n      0x00\n        /* \"#utility.yul\":345:347   */\n      0x20\n        /* \"#utility.yul\":334:343   */\n      dup3\n        /* \"#utility.yul\":330:348   */\n      add\n        /* \"#utility.yul\":322:348   */\n      swap1\n      pop\n        /* \"#utility.yul\":358:429   */\n      tag_28\n        /* \"#utility.yul\":426:427   */\n      0x00\n        /* \"#utility.yul\":415:424   */\n      dup4\n        /* \"#utility.yul\":411:428   */\n      add\n        /* \"#utility.yul\":402:408   */\n      dup5\n        /* \"#utility.yul\":358:429   */\n      tag_18\n      jump\t// in\n    tag_28:\n        /* \"#utility.yul\":214:436   */\n      swap3\n      swap2\n      pop\n      pop\n      jump\t// out\n        /* \"#utility.yul\":442:540   */\n    tag_19:\n        /* \"#utility.yul\":493:499   */\n      0x00\n        /* \"#utility.yul\":527:532   */\n      dup2\n        /* \"#utility.yul\":521:533   */\n      mload\n        /* \"#utility.yul\":511:533   */\n      swap1\n      pop\n        /* \"#utility.yul\":442:540   */\n      swap2\n      swap1\n      pop\n      jump\t// out\n        /* \"#utility.yul\":546:693   */\n    tag_20:\n        /* \"#utility.yul\":647:658   */\n      0x00\n        /* \"#utility.yul\":684:687   */\n      dup2\n        /* \"#utility.yul\":669:687   */\n      swap1\n      pop\n        /* \"#utility.yul\":546:693   */\n      swap3\n      swap2\n      pop\n      pop\n      jump\t// out\n        /* \"#utility.yul\":699:838   */\n    tag_21:\n        /* \"#utility.yul\":788:794   */\n      dup3\n        /* \"#utility.yul\":783:786   */\n      dup2\n        /* \"#utility.yul\":778:781   */\n      dup4\n        /* \"#utility.yul\":772:795   */\n      mcopy\n        /* \"#utility.yul\":829:830   */\n      0x00\n        /* \"#utility.yul\":820:826   */\n      dup4\n        /* \"#utility.yul\":815:818   */\n      dup4\n        /* \"#utility.yul\":811:827   */\n      add\n        /* \"#utility.yul\":804:831   */\n      mstore\n        /* \"#utility.yul\":699:838   */\n      pop\n      pop\n      pop\n      jump\t// out\n        /* \"#utility.yul\":844:1230   */\n    tag_22:\n        /* \"#utility.yul\":948:951   */\n      0x00\n        /* \"#utility.yul\":976:1014   */\n      tag_33\n        /* \"#utility.yul\":1008:1013   */\n      dup3\n        /* \"#utility.yul\":976:1014   */\n      tag_19\n      jump\t// in\n    tag_33:\n        /* \"#utility.yul\":1030:1118   */\n      tag_34\n        /* \"#utility.yul\":1111:1117   */\n      dup2\n        /* \"#utility.yul\":1106:1109   */\n      dup6\n        /* \"#utility.yul\":1030:1118   */\n      tag_20\n      jump\t// in\n    tag_34:\n        /* \"#utility.yul\":1023:1118   */\n      swap4\n      pop\n        /* \"#utility.yul\":1127:1192   */\n      tag_35\n        /* \"#utility.yul\":1185:1191   */\n      dup2\n        /* \"#utility.yul\":1180:1183   */\n      dup6\n        /* \"#utility.yul\":1173:1177   */\n      0x20\n        /* \"#utility.yul\":1166:1171   */\n      dup7\n        /* \"#utility.yul\":1162:1178   */\n      add\n        /* \"#utility.yul\":1127:1192   */\n      tag_21\n      jump\t// in\n    tag_35:\n        /* \"#utility.yul\":1217:1223   */\n      dup1\n        /* \"#utility.yul\":1212:1215   */\n      dup5\n        /* \"#utility.yul\":1208:1224   */\n      add\n        /* \"#utility.yul\":1201:1224   */\n      swap2\n      pop\n        /* \"#utility.yul\":952:1230   */\n      pop\n        /* \"#utility.yul\":844:1230   */\n      swap3\n      swap2\n      pop\n      pop\n      jump\t// out\n        /* \"#utility.yul\":1236:1507   */\n    tag_13:\n        /* \"#utility.yul\":1366:1369   */\n      0x00\n        /* \"#utility.yul\":1388:1481   */\n      tag_37\n        /* \"#utility.yul\":1477:1480   */\n      dup3\n        /* \"#utility.yul\":1468:1474   */\n      dup5\n        /* \"#utility.yul\":1388:1481   */\n      tag_22\n      jump\t// in\n    tag_37:\n        /* \"#utility.yul\":1381:1481   */\n      swap2\n      pop\n        /* \"#utility.yul\":1498:1501   */\n      dup2\n        /* \"#utility.yul\":1491:1501   */\n      swap1\n      pop\n        /* \"#utility.yul\":1236:1507   */\n      swap3\n      swap2\n      pop\n      pop\n      jump\t// out\n\n    auxdata: 0xa2646970667358221220cc313dbb5f2e3da6e7cb1599eeada328dad8d511dd97501b6c6c02015e77e0a764736f6c634300081a0033\n}\n",
				"bytecode": {
					"linkReferences": {},
					"object": "6080604052348015600e575f80fd5b506101b68061001c5f395ff3fe608060405234801561000f575f80fd5b5060043610610034575f3560e01c80633c6bb43614610038578063f8a8fd6d14610056575b5f80fd5b610040610060565b60405161004d91906100ff565b60405180910390f35b61005e610065565b005b5f5481565b607b5f819055505f60405180602001604052805f81525090503373ffffffffffffffffffffffffffffffffffffffff16816040516100a3919061016a565b5f604051808303815f865af19150503d805f81146100dc576040519150601f19603f3d011682016040523d82523d5f602084013e6100e1565b606091505b50505050565b5f819050919050565b6100f9816100e7565b82525050565b5f6020820190506101125f8301846100f0565b92915050565b5f81519050919050565b5f81905092915050565b8281835e5f83830152505050565b5f61014482610118565b61014e8185610122565b935061015e81856020860161012c565b80840191505092915050565b5f610175828461013a565b91508190509291505056fea2646970667358221220cc313dbb5f2e3da6e7cb1599eeada328dad8d511dd97501b6c6c02015e77e0a764736f6c634300081a0033",
					"opcodes": "PUSH1 0x80 PUSH1 0x40 MSTORE CALLVALUE DUP1 ISZERO PUSH1 0xE JUMPI PUSH0 DUP1 REVERT JUMPDEST POP PUSH2 0x1B6 DUP1 PUSH2 0x1C PUSH0 CODECOPY PUSH0 RETURN INVALID PUSH1 0x80 PUSH1 0x40 MSTORE CALLVALUE DUP1 ISZERO PUSH2 0xF JUMPI PUSH0 DUP1 REVERT JUMPDEST POP PUSH1 0x4 CALLDATASIZE LT PUSH2 0x34 JUMPI PUSH0 CALLDATALOAD PUSH1 0xE0 SHR DUP1 PUSH4 0x3C6BB436 EQ PUSH2 0x38 JUMPI DUP1 PUSH4 0xF8A8FD6D EQ PUSH2 0x56 JUMPI JUMPDEST PUSH0 DUP1 REVERT JUMPDEST PUSH2 0x40 PUSH2 0x60 JUMP JUMPDEST PUSH1 0x40 MLOAD PUSH2 0x4D SWAP2 SWAP1 PUSH2 0xFF JUMP JUMPDEST PUSH1 0x40 MLOAD DUP1 SWAP2 SUB SWAP1 RETURN JUMPDEST PUSH2 0x5E PUSH2 0x65 JUMP JUMPDEST STOP JUMPDEST PUSH0 SLOAD DUP2 JUMP JUMPDEST PUSH1 0x7B PUSH0 DUP2 SWAP1 SSTORE POP PUSH0 PUSH1 0x40 MLOAD DUP1 PUSH1 0x20 ADD PUSH1 0x40 MSTORE DUP1 PUSH0 DUP2 MSTORE POP SWAP1 POP CALLER PUSH20 0xFFFFFFFFFFFFFFFFFFFFFFFFFFFFFFFFFFFFFFFF AND DUP2 PUSH1 0x40 MLOAD PUSH2 0xA3 SWAP2 SWAP1 PUSH2 0x16A JUMP JUMPDEST PUSH0 PUSH1 0x40 MLOAD DUP1 DUP4 SUB DUP2 PUSH0 DUP7 GAS CALL SWAP2 POP POP RETURNDATASIZE DUP1 PUSH0 DUP2 EQ PUSH2 0xDC JUMPI PUSH1 0x40 MLOAD SWAP2 POP PUSH1 0x1F NOT PUSH1 0x3F RETURNDATASIZE ADD AND DUP3 ADD PUSH1 0x40 MSTORE RETURNDATASIZE DUP3 MSTORE RETURNDATASIZE PUSH0 PUSH1 0x20 DUP5 ADD RETURNDATACOPY PUSH2 0xE1 JUMP JUMPDEST PUSH1 0x60 SWAP2 POP JUMPDEST POP POP POP POP JUMP JUMPDEST PUSH0 DUP2 SWAP1 POP SWAP2 SWAP1 POP JUMP JUMPDEST PUSH2 0xF9 DUP2 PUSH2 0xE7 JUMP JUMPDEST DUP3 MSTORE POP POP JUMP JUMPDEST PUSH0 PUSH1 0x20 DUP3 ADD SWAP1 POP PUSH2 0x112 PUSH0 DUP4 ADD DUP5 PUSH2 0xF0 JUMP JUMPDEST SWAP3 SWAP2 POP POP JUMP JUMPDEST PUSH0 DUP2 MLOAD SWAP1 POP SWAP2 SWAP1 POP JUMP JUMPDEST PUSH0 DUP2 SWAP1 POP SWAP3 SWAP2 POP POP JUMP JUMPDEST DUP3 DUP2 DUP4 MCOPY PUSH0 DUP4 DUP4 ADD MSTORE POP POP POP JUMP JUMPDEST PUSH0 PUSH2 0x144 DUP3 PUSH2 0x118 JUMP JUMPDEST PUSH2 0x14E DUP2 DUP6 PUSH2 0x122 JUMP JUMPDEST SWAP4 POP PUSH2 0x15E DUP2 DUP6 PUSH1 0x20 DUP7 ADD PUSH2 0x12C JUMP JUMPDEST DUP1 DUP5 ADD SWAP2 POP POP SWAP3 SWAP2 POP POP JUMP JUMPDEST PUSH0 PUSH2 0x175 DUP3 DUP5 PUSH2 0x13A JUMP JUMPDEST SWAP2 POP DUP2 SWAP1 POP SWAP3 SWAP2 POP POP JUMP INVALID LOG2 PUSH5 0x6970667358 0x22 SLT KECCAK256 0xCC BALANCE RETURNDATASIZE 0xBB PUSH0 0x2E RETURNDATASIZE 0xA6 0xE7 0xCB ISZERO SWAP10 0xEE 0xAD LOG3 0x28 0xDA 0xD8 0xD5 GT 0xDD SWAP8 POP SHL PUSH13 0x6C02015E77E0A764736F6C6343 STOP ADDMOD BYTE STOP CALLER "
				},
				"gasEstimates": {
					"creation": {
						"codeDepositCost": "87600",
						"executionCost": "133",
						"totalCost": "87733"
					},
					"external": {
						"test()": "infinite",
						"val()": "2402"
					}
				},
				"methodIdentifiers": {
					"test()": "f8a8fd6d",
					"val()": "3c6bb436"
				}
			},
			"storageLayout": {
				"storage": [
					{
						"astId": 3,
						"contract": "Contract/Transitstorage.sol:TestStorage",
						"label": "val",
						"offset": 0,
						"slot": "0",
						"type": "t_uint256"
					}
				],
				"types": {
					"t_uint256": {
						"encoding": "inplace",
						"label": "uint256",
						"numberOfBytes": "32"
					}
				}
			},
			"userdoc": {
				"kind": "user",
				"methods": {},
				"version": 1
			}
		}
	}
}